{
  "_format": "hh-sol-artifact-1",
  "contractName": "KampHostel",
  "sourceName": "contracts/KampHostel.sol",
  "abi": [
    {
      "inputs": [],
      "name": "ReentrancyGuardReentrantCall",
      "type": "error"
    },
    {
      "anonymous": false,
      "inputs": [
        {
          "indexed": true,
          "internalType": "address",
          "name": "owner",
          "type": "address"
        },
        {
          "indexed": false,
          "internalType": "bool",
          "name": "isRegistered",
          "type": "bool"
        }
      ],
      "name": "HostelOwnerRegistered",
      "type": "event"
    },
    {
      "anonymous": false,
      "inputs": [
        {
          "indexed": true,
          "internalType": "address",
          "name": "student",
          "type": "address"
        },
        {
          "indexed": false,
          "internalType": "uint256",
          "name": "proertyId",
          "type": "uint256"
        }
      ],
      "name": "HostelRequested",
      "type": "event"
    },
    {
      "anonymous": false,
      "inputs": [
        {
          "indexed": true,
          "internalType": "address",
          "name": "owner",
          "type": "address"
        },
        {
          "indexed": false,
          "internalType": "bool",
          "name": "isRegistered",
          "type": "bool"
        }
      ],
      "name": "PropertyRegistered",
      "type": "event"
    },
    {
      "anonymous": false,
      "inputs": [
        {
          "indexed": true,
          "internalType": "address",
          "name": "owner",
          "type": "address"
        },
        {
          "indexed": true,
          "internalType": "address",
          "name": "student",
          "type": "address"
        },
        {
          "indexed": false,
          "internalType": "uint256",
          "name": "hostelId",
          "type": "uint256"
        }
      ],
      "name": "ReceiptSigned",
      "type": "event"
    },
    {
      "anonymous": false,
      "inputs": [
        {
          "indexed": true,
          "internalType": "address",
          "name": "owner",
          "type": "address"
        },
        {
          "indexed": true,
          "internalType": "address",
          "name": "student",
          "type": "address"
        },
        {
          "indexed": false,
          "internalType": "uint256",
          "name": "amount",
          "type": "uint256"
        }
      ],
      "name": "RentPaid",
      "type": "event"
    },
    {
      "anonymous": false,
      "inputs": [
        {
          "indexed": true,
          "internalType": "address",
          "name": "student",
          "type": "address"
        },
        {
          "indexed": false,
          "internalType": "bool",
          "name": "isRegistered",
          "type": "bool"
        }
      ],
      "name": "StudentRegistered",
      "type": "event"
    },
    {
      "anonymous": false,
      "inputs": [
        {
          "indexed": true,
          "internalType": "address",
          "name": "user",
          "type": "address"
        },
        {
          "indexed": false,
          "internalType": "uint256",
          "name": "amount",
          "type": "uint256"
        }
      ],
      "name": "Withdrawn",
      "type": "event"
    },
    {
      "inputs": [],
      "name": "autoHostelPayment",
      "outputs": [],
      "stateMutability": "nonpayable",
      "type": "function"
    },
    {
      "inputs": [
        {
          "internalType": "bytes",
          "name": "",
          "type": "bytes"
        }
      ],
      "name": "checkUpkeep",
      "outputs": [
        {
          "internalType": "bool",
          "name": "upkeepNeeded",
          "type": "bool"
        },
        {
          "internalType": "bytes",
          "name": "performData",
          "type": "bytes"
        }
      ],
      "stateMutability": "view",
      "type": "function"
    },
    {
      "inputs": [
        {
          "internalType": "address",
          "name": "",
          "type": "address"
        }
      ],
      "name": "hostelOwnerProfile",
      "outputs": [
        {
          "internalType": "uint256",
          "name": "balance",
          "type": "uint256"
        },
        {
          "internalType": "address",
          "name": "user",
          "type": "address"
        },
        {
          "internalType": "bool",
          "name": "isRegistered",
          "type": "bool"
        },
        {
          "internalType": "bool",
          "name": "hasHostel",
          "type": "bool"
        }
      ],
      "stateMutability": "view",
      "type": "function"
    },
    {
      "inputs": [
        {
          "internalType": "uint256",
          "name": "_hostelId",
          "type": "uint256"
        }
      ],
      "name": "hostelRentRequest",
      "outputs": [],
      "stateMutability": "nonpayable",
      "type": "function"
    },
    {
      "inputs": [],
      "name": "indexedHostel",
      "outputs": [
        {
          "internalType": "uint256",
          "name": "",
          "type": "uint256"
        }
      ],
      "stateMutability": "view",
      "type": "function"
    },
    {
      "inputs": [
        {
          "internalType": "bytes32",
          "name": "",
          "type": "bytes32"
        }
      ],
      "name": "isHostelRegistered",
      "outputs": [
        {
          "internalType": "bool",
          "name": "",
          "type": "bool"
        }
      ],
      "stateMutability": "view",
      "type": "function"
    },
    {
      "inputs": [
        {
          "internalType": "uint256",
          "name": "",
          "type": "uint256"
        }
      ],
      "name": "issuedReceipts",
      "outputs": [
        {
          "internalType": "uint256",
          "name": "hostelId",
          "type": "uint256"
        },
        {
          "internalType": "uint256",
          "name": "startDate",
          "type": "uint256"
        },
        {
          "internalType": "uint256",
          "name": "endDate",
          "type": "uint256"
        },
        {
          "internalType": "uint256",
          "name": "rooms",
          "type": "uint256"
        },
        {
          "internalType": "address",
          "name": "owner",
          "type": "address"
        },
        {
          "internalType": "address",
          "name": "student",
          "type": "address"
        },
        {
          "internalType": "bool",
          "name": "isSigned",
          "type": "bool"
        },
        {
          "internalType": "bool",
          "name": "isPaid",
          "type": "bool"
        }
      ],
      "stateMutability": "view",
      "type": "function"
    },
    {
      "inputs": [
        {
          "internalType": "uint256",
          "name": "",
          "type": "uint256"
        }
      ],
      "name": "listedHostels",
      "outputs": [
        {
          "internalType": "uint256",
          "name": "hostelId",
          "type": "uint256"
        },
        {
          "internalType": "address",
          "name": "owner",
          "type": "address"
        },
        {
          "internalType": "string",
          "name": "location",
          "type": "string"
        },
        {
          "internalType": "uint256",
          "name": "rooms",
          "type": "uint256"
        },
        {
          "internalType": "uint256",
          "name": "rentAmount",
          "type": "uint256"
        },
        {
          "internalType": "address",
          "name": "requestedBy",
          "type": "address"
        },
        {
          "internalType": "bool",
          "name": "isRegistered",
          "type": "bool"
        },
        {
          "internalType": "bool",
          "name": "isRequested",
          "type": "bool"
        },
        {
          "internalType": "bool",
          "name": "isOccupied",
          "type": "bool"
        }
      ],
      "stateMutability": "view",
      "type": "function"
    },
    {
      "inputs": [
        {
          "internalType": "bytes",
          "name": "performData",
          "type": "bytes"
        }
      ],
      "name": "performUpkeep",
      "outputs": [],
      "stateMutability": "nonpayable",
      "type": "function"
    },
    {
      "inputs": [
        {
          "internalType": "string",
          "name": "_location",
          "type": "string"
        },
        {
          "internalType": "uint256",
          "name": "_rooms",
          "type": "uint256"
        },
        {
          "internalType": "uint256",
          "name": "_amount",
          "type": "uint256"
        }
      ],
      "name": "registerHostel",
      "outputs": [],
      "stateMutability": "nonpayable",
      "type": "function"
    },
    {
      "inputs": [],
      "name": "registerHostelOwner",
      "outputs": [],
      "stateMutability": "nonpayable",
      "type": "function"
    },
    {
      "inputs": [],
      "name": "registerStudent",
      "outputs": [],
      "stateMutability": "nonpayable",
      "type": "function"
    },
    {
      "inputs": [],
      "name": "returnAllHostels",
      "outputs": [
        {
          "components": [
            {
              "internalType": "uint256",
              "name": "hostelId",
              "type": "uint256"
            },
            {
              "internalType": "address",
              "name": "owner",
              "type": "address"
            },
            {
              "internalType": "string",
              "name": "location",
              "type": "string"
            },
            {
              "internalType": "uint256",
              "name": "rooms",
              "type": "uint256"
            },
            {
              "internalType": "uint256",
              "name": "rentAmount",
              "type": "uint256"
            },
            {
              "internalType": "address",
              "name": "requestedBy",
              "type": "address"
            },
            {
              "internalType": "bool",
              "name": "isRegistered",
              "type": "bool"
            },
            {
              "internalType": "bool",
              "name": "isRequested",
              "type": "bool"
            },
            {
              "internalType": "bool",
              "name": "isOccupied",
              "type": "bool"
            }
          ],
          "internalType": "struct KampHostel.Hostel[]",
          "name": "",
          "type": "tuple[]"
        }
      ],
      "stateMutability": "view",
      "type": "function"
    },
    {
      "inputs": [],
      "name": "returnHostelOwnerProfile",
      "outputs": [
        {
          "components": [
            {
              "internalType": "uint256",
              "name": "balance",
              "type": "uint256"
            },
            {
              "internalType": "address",
              "name": "user",
              "type": "address"
            },
            {
              "internalType": "bool",
              "name": "isRegistered",
              "type": "bool"
            },
            {
              "internalType": "bool",
              "name": "hasHostel",
              "type": "bool"
            }
          ],
          "internalType": "struct KampHostel.HostelOwner",
          "name": "",
          "type": "tuple"
        }
      ],
      "stateMutability": "view",
      "type": "function"
    },
    {
      "inputs": [],
      "name": "returnHostelReceipt",
      "outputs": [
        {
          "components": [
            {
              "internalType": "uint256",
              "name": "hostelId",
              "type": "uint256"
            },
            {
              "internalType": "uint256",
              "name": "startDate",
              "type": "uint256"
            },
            {
              "internalType": "uint256",
              "name": "endDate",
              "type": "uint256"
            },
            {
              "internalType": "uint256",
              "name": "rooms",
              "type": "uint256"
            },
            {
              "internalType": "address",
              "name": "owner",
              "type": "address"
            },
            {
              "internalType": "address",
              "name": "student",
              "type": "address"
            },
            {
              "internalType": "bool",
              "name": "isSigned",
              "type": "bool"
            },
            {
              "internalType": "bool",
              "name": "isPaid",
              "type": "bool"
            }
          ],
          "internalType": "struct KampHostel.IssuedReceipt",
          "name": "",
          "type": "tuple"
        }
      ],
      "stateMutability": "view",
      "type": "function"
    },
    {
      "inputs": [],
      "name": "returnStudentProfile",
      "outputs": [
        {
          "components": [
            {
              "internalType": "uint256",
              "name": "balance",
              "type": "uint256"
            },
            {
              "internalType": "address",
              "name": "student",
              "type": "address"
            },
            {
              "internalType": "bool",
              "name": "hasActiveHostel",
              "type": "bool"
            },
            {
              "internalType": "bool",
              "name": "isRegistered",
              "type": "bool"
            }
          ],
          "internalType": "struct KampHostel.Student",
          "name": "",
          "type": "tuple"
        }
      ],
      "stateMutability": "view",
      "type": "function"
    },
    {
      "inputs": [
        {
          "internalType": "uint256",
          "name": "_hostelId",
          "type": "uint256"
        },
        {
          "internalType": "uint256",
          "name": "_durationInDays",
          "type": "uint256"
        }
      ],
      "name": "signHostelReceipt",
      "outputs": [],
      "stateMutability": "nonpayable",
      "type": "function"
    },
    {
      "inputs": [],
      "name": "studentDeposit",
      "outputs": [],
      "stateMutability": "payable",
      "type": "function"
    },
    {
      "inputs": [
        {
          "internalType": "address",
          "name": "",
          "type": "address"
        }
      ],
      "name": "studentProfile",
      "outputs": [
        {
          "internalType": "uint256",
          "name": "balance",
          "type": "uint256"
        },
        {
          "internalType": "address",
          "name": "student",
          "type": "address"
        },
        {
          "internalType": "bool",
          "name": "hasActiveHostel",
          "type": "bool"
        },
        {
          "internalType": "bool",
          "name": "isRegistered",
          "type": "bool"
        }
      ],
      "stateMutability": "view",
      "type": "function"
    },
    {
      "inputs": [
        {
          "internalType": "uint256",
          "name": "_amount",
          "type": "uint256"
        }
      ],
      "name": "userWithdraw",
      "outputs": [],
      "stateMutability": "nonpayable",
      "type": "function"
    },
    {
      "stateMutability": "payable",
      "type": "receive"
    }
  ],
  "bytecode": "0x6080604052348015600f57600080fd5b50600160008190555061514e806100276000396000f3fe6080604052600436106101235760003560e01c80636e04ff0d116100a057806398564c4f1161006457806398564c4f146103d7578063b9a8736e146103e1578063d80a492c1461040c578063e2ffabab14610450578063e69269221461047b5761012a565b80636e04ff0d146102c257806372b8fb6114610300578063765b5418146103455780637da2b3881461036e57806393fd9361146103ae5761012a565b80633b9056bf116100e75780633b9056bf14610203578063429796581461022c5780634585e33b146102435780635e0d085c1461026c578063634aee16146102975761012a565b8063041a1a161461012f578063067c7afd1461016c578063138cb41b1461019557806319e6a3a1146101ac5780631d71f45f146101ec5761012a565b3661012a57005b600080fd5b34801561013b57600080fd5b5061015660048036038101906101519190613644565b6104a6565b604051610163919061368c565b60405180910390f35b34801561017857600080fd5b50610193600480360381019061018e91906136dd565b6104c6565b005b3480156101a157600080fd5b506101aa610871565b005b3480156101b857600080fd5b506101d360048036038101906101ce9190613768565b610a63565b6040516101e394939291906137b3565b60405180910390f35b3480156101f857600080fd5b50610201610acd565b005b34801561020f57600080fd5b5061022a600480360381019061022591906136dd565b610ddc565b005b34801561023857600080fd5b506102416111d9565b005b34801561024f57600080fd5b5061026a6004803603810190610265919061385d565b61145b565b005b34801561027857600080fd5b506102816114a1565b60405161028e9190613aee565b60405180910390f35b3480156102a357600080fd5b506102ac6116ae565b6040516102b99190613b65565b60405180910390f35b3480156102ce57600080fd5b506102e960048036038101906102e4919061385d565b61182a565b6040516102f7929190613bd5565b60405180910390f35b34801561030c57600080fd5b50610327600480360381019061032291906136dd565b611cad565b60405161033c99989796959493929190613c4f565b60405180910390f35b34801561035157600080fd5b5061036c60048036038101906103679190613e13565b611dfa565b005b34801561037a57600080fd5b5061039560048036038101906103909190613768565b6122a1565b6040516103a594939291906137b3565b60405180910390f35b3480156103ba57600080fd5b506103d560048036038101906103d09190613e82565b61230b565b005b6103df6129f1565b005b3480156103ed57600080fd5b506103f6612bfe565b6040516104039190613f64565b60405180910390f35b34801561041857600080fd5b50610433600480360381019061042e91906136dd565b613056565b604051610447989796959493929190613f80565b60405180910390f35b34801561045c57600080fd5b506104656130f8565b6040516104729190614053565b60405180910390f35b34801561048757600080fd5b50610490613274565b60405161049d919061406e565b60405180910390f35b60056020528060005260406000206000915054906101000a900460ff1681565b600160003373ffffffffffffffffffffffffffffffffffffffff1673ffffffffffffffffffffffffffffffffffffffff16815260200190815260200160002060010160159054906101000a900460ff16610555576040517f08c379a000000000000000000000000000000000000000000000000000000000815260040161054c906140d5565b60405180910390fd5b3373ffffffffffffffffffffffffffffffffffffffff16600160003373ffffffffffffffffffffffffffffffffffffffff1673ffffffffffffffffffffffffffffffffffffffff16815260200190815260200160002060010160009054906101000a900473ffffffffffffffffffffffffffffffffffffffff1673ffffffffffffffffffffffffffffffffffffffff1614610625576040517f08c379a000000000000000000000000000000000000000000000000000000000815260040161061c90614141565b60405180910390fd5b600480549050811061066c576040517f08c379a0000000000000000000000000000000000000000000000000000000008152600401610663906141ad565b60405180910390fd5b600060048281548110610682576106816141cd565b5b906000526020600020906006020190508060050160169054906101000a900460ff16156106e4576040517f08c379a00000000000000000000000000000000000000000000000000000000081526004016106db90614248565b60405180910390fd5b8060050160159054906101000a900460ff1615610736576040517f08c379a000000000000000000000000000000000000000000000000000000000815260040161072d906142b4565b60405180910390fd5b8060040154600160003373ffffffffffffffffffffffffffffffffffffffff1673ffffffffffffffffffffffffffffffffffffffff1681526020019081526020016000206000015410156107bf576040517f08c379a00000000000000000000000000000000000000000000000000000000081526004016107b690614320565b60405180910390fd5b60018160050160156101000a81548160ff021916908315150217905550338160050160006101000a81548173ffffffffffffffffffffffffffffffffffffffff021916908373ffffffffffffffffffffffffffffffffffffffff1602179055503373ffffffffffffffffffffffffffffffffffffffff167f17dc8a6307cde01046095a43d03fbe269780edc3e5121ea854656b886e52bc8583604051610865919061406e565b60405180910390a25050565b600260003373ffffffffffffffffffffffffffffffffffffffff1673ffffffffffffffffffffffffffffffffffffffff16815260200190815260200160002060010160149054906101000a900460ff1615610901576040517f08c379a00000000000000000000000000000000000000000000000000000000081526004016108f89061438c565b60405180910390fd5b6040518060800160405280600081526020013373ffffffffffffffffffffffffffffffffffffffff16815260200160011515815260200160001515815250600260003373ffffffffffffffffffffffffffffffffffffffff1673ffffffffffffffffffffffffffffffffffffffff1681526020019081526020016000206000820151816000015560208201518160010160006101000a81548173ffffffffffffffffffffffffffffffffffffffff021916908373ffffffffffffffffffffffffffffffffffffffff16021790555060408201518160010160146101000a81548160ff02191690831515021790555060608201518160010160156101000a81548160ff0219169083151502179055509050503373ffffffffffffffffffffffffffffffffffffffff167fe68b77078f1ecafc2e6ae9f345a86800a0be45e33112ae25c830ab8ccf2867b06001604051610a59919061368c565b60405180910390a2565b60016020528060005260406000206000915090508060000154908060010160009054906101000a900473ffffffffffffffffffffffffffffffffffffffff16908060010160149054906101000a900460ff16908060010160159054906101000a900460ff16905084565b610ad561327a565b60005b600480549050811015610dd157600060048281548110610afb57610afa6141cd565b5b906000526020600020906006020190506000600660008360000154815260200190815260200160002090508060050160149054906101000a900460ff168015610b48575060008160010154115b8015610b5b575080600101548160020154115b8015610b7657508060050160159054906101000a900460ff16155b8015610bec57508160040154600160008360050160009054906101000a900473ffffffffffffffffffffffffffffffffffffffff1673ffffffffffffffffffffffffffffffffffffffff1673ffffffffffffffffffffffffffffffffffffffff1681526020019081526020016000206000015410155b15610dc2578160040154600160008360050160009054906101000a900473ffffffffffffffffffffffffffffffffffffffff1673ffffffffffffffffffffffffffffffffffffffff1673ffffffffffffffffffffffffffffffffffffffff1681526020019081526020016000206000016000828254610c6b91906143db565b925050819055508160040154600260008360040160009054906101000a900473ffffffffffffffffffffffffffffffffffffffff1673ffffffffffffffffffffffffffffffffffffffff1673ffffffffffffffffffffffffffffffffffffffff1681526020019081526020016000206000016000828254610cec919061440f565b9250508190555060018160050160156101000a81548160ff0219169083151502179055508060050160009054906101000a900473ffffffffffffffffffffffffffffffffffffffff1673ffffffffffffffffffffffffffffffffffffffff168160040160009054906101000a900473ffffffffffffffffffffffffffffffffffffffff1673ffffffffffffffffffffffffffffffffffffffff167f791ff5c84f9acebb4b26797f063e5992a2fe426c7b60a97e82d103e9c8b210e48460040154604051610db9919061406e565b60405180910390a35b50508080600101915050610ad8565b50610dda6132c0565b565b610de461327a565b60008111610e27576040517f08c379a0000000000000000000000000000000000000000000000000000000008152600401610e1e9061448f565b60405180910390fd5b600160003373ffffffffffffffffffffffffffffffffffffffff1673ffffffffffffffffffffffffffffffffffffffff16815260200190815260200160002060010160159054906101000a900460ff1615610f5f5780600160003373ffffffffffffffffffffffffffffffffffffffff1673ffffffffffffffffffffffffffffffffffffffff168152602001908152602001600020600001541015610f01576040517f08c379a0000000000000000000000000000000000000000000000000000000008152600401610ef8906144fb565b60405180910390fd5b80600160003373ffffffffffffffffffffffffffffffffffffffff1673ffffffffffffffffffffffffffffffffffffffff1681526020019081526020016000206000016000828254610f5391906143db565b925050819055506110d3565b600260003373ffffffffffffffffffffffffffffffffffffffff1673ffffffffffffffffffffffffffffffffffffffff16815260200190815260200160002060010160149054906101000a900460ff16156110975780600260003373ffffffffffffffffffffffffffffffffffffffff1673ffffffffffffffffffffffffffffffffffffffff168152602001908152602001600020600001541015611039576040517f08c379a000000000000000000000000000000000000000000000000000000000815260040161103090614567565b60405180910390fd5b80600260003373ffffffffffffffffffffffffffffffffffffffff1673ffffffffffffffffffffffffffffffffffffffff168152602001908152602001600020600001600082825461108b91906143db565b925050819055506110d2565b6040517f08c379a00000000000000000000000000000000000000000000000000000000081526004016110c9906145d3565b60405180910390fd5b5b60003373ffffffffffffffffffffffffffffffffffffffff16826040516110f990614624565b60006040518083038185875af1925050503d8060008114611136576040519150601f19603f3d011682016040523d82523d6000602084013e61113b565b606091505b505090508061117f576040517f08c379a000000000000000000000000000000000000000000000000000000000815260040161117690614685565b60405180910390fd5b3373ffffffffffffffffffffffffffffffffffffffff167f7084f5476618d8e60b11ef0d7d3f06914655adb8793e28ff7f018d4c76d505d5836040516111c5919061406e565b60405180910390a2506111d66132c0565b50565b600160003373ffffffffffffffffffffffffffffffffffffffff1673ffffffffffffffffffffffffffffffffffffffff16815260200190815260200160002060010160159054906101000a900460ff1615611269576040517f08c379a0000000000000000000000000000000000000000000000000000000008152600401611260906146f1565b60405180910390fd5b600160003373ffffffffffffffffffffffffffffffffffffffff1673ffffffffffffffffffffffffffffffffffffffff16815260200190815260200160002060010160149054906101000a900460ff16156112f9576040517f08c379a00000000000000000000000000000000000000000000000000000000081526004016112f0906146f1565b60405180910390fd5b6040518060800160405280600081526020013373ffffffffffffffffffffffffffffffffffffffff16815260200160001515815260200160011515815250600160003373ffffffffffffffffffffffffffffffffffffffff1673ffffffffffffffffffffffffffffffffffffffff1681526020019081526020016000206000820151816000015560208201518160010160006101000a81548173ffffffffffffffffffffffffffffffffffffffff021916908373ffffffffffffffffffffffffffffffffffffffff16021790555060408201518160010160146101000a81548160ff02191690831515021790555060608201518160010160156101000a81548160ff0219169083151502179055509050503373ffffffffffffffffffffffffffffffffffffffff167f6b984f461c8f89a8befd615eb757b5d325a0591faa0cc4a0b16cf2096e4666246001604051611451919061368c565b60405180910390a2565b6000828281019061146c919061474a565b91505060018160ff1603611487576114826132ca565b61149c565b60028160ff160361149b5761149a610acd565b5b5b505050565b60606004805480602002602001604051908101604052809291908181526020016000905b828210156116a5578382906000526020600020906006020160405180610120016040529081600082015481526020016001820160009054906101000a900473ffffffffffffffffffffffffffffffffffffffff1673ffffffffffffffffffffffffffffffffffffffff1673ffffffffffffffffffffffffffffffffffffffff168152602001600282018054611559906147b9565b80601f0160208091040260200160405190810160405280929190818152602001828054611585906147b9565b80156115d25780601f106115a7576101008083540402835291602001916115d2565b820191906000526020600020905b8154815290600101906020018083116115b557829003601f168201915b5050505050815260200160038201548152602001600482015481526020016005820160009054906101000a900473ffffffffffffffffffffffffffffffffffffffff1673ffffffffffffffffffffffffffffffffffffffff1673ffffffffffffffffffffffffffffffffffffffff1681526020016005820160149054906101000a900460ff161515151581526020016005820160159054906101000a900460ff161515151581526020016005820160169054906101000a900460ff161515151581525050815260200190600101906114c5565b50505050905090565b6116b6613501565b600260003373ffffffffffffffffffffffffffffffffffffffff1673ffffffffffffffffffffffffffffffffffffffff16815260200190815260200160002060010160149054906101000a900460ff16611745576040517f08c379a000000000000000000000000000000000000000000000000000000000815260040161173c90614836565b60405180910390fd5b600260003373ffffffffffffffffffffffffffffffffffffffff1673ffffffffffffffffffffffffffffffffffffffff168152602001908152602001600020604051806080016040529081600082015481526020016001820160009054906101000a900473ffffffffffffffffffffffffffffffffffffffff1673ffffffffffffffffffffffffffffffffffffffff1673ffffffffffffffffffffffffffffffffffffffff1681526020016001820160149054906101000a900460ff161515151581526020016001820160159054906101000a900460ff161515151581525050905090565b6000606060005b600480549050811015611c8e57600060048281548110611854576118536141cd565b5b906000526020600020906006020160405180610120016040529081600082015481526020016001820160009054906101000a900473ffffffffffffffffffffffffffffffffffffffff1673ffffffffffffffffffffffffffffffffffffffff1673ffffffffffffffffffffffffffffffffffffffff1681526020016002820180546118de906147b9565b80601f016020809104026020016040519081016040528092919081815260200182805461190a906147b9565b80156119575780601f1061192c57610100808354040283529160200191611957565b820191906000526020600020905b81548152906001019060200180831161193a57829003601f168201915b5050505050815260200160038201548152602001600482015481526020016005820160009054906101000a900473ffffffffffffffffffffffffffffffffffffffff1673ffffffffffffffffffffffffffffffffffffffff1673ffffffffffffffffffffffffffffffffffffffff1681526020016005820160149054906101000a900460ff161515151581526020016005820160159054906101000a900460ff161515151581526020016005820160169054906101000a900460ff16151515158152505090506000600660008360000151815260200190815260200160002060405180610100016040529081600082015481526020016001820154815260200160028201548152602001600382015481526020016004820160009054906101000a900473ffffffffffffffffffffffffffffffffffffffff1673ffffffffffffffffffffffffffffffffffffffff1673ffffffffffffffffffffffffffffffffffffffff1681526020016005820160009054906101000a900473ffffffffffffffffffffffffffffffffffffffff1673ffffffffffffffffffffffffffffffffffffffff1673ffffffffffffffffffffffffffffffffffffffff1681526020016005820160149054906101000a900460ff161515151581526020016005820160159054906101000a900460ff16151515158152505090508060c001518015611b6057508060e001515b8015611b6f5750806020015142115b15611ba957600182600001516001604051602001611b8e929190614865565b60405160208183030381529060405294509450505050611ca6565b8060c001518015611bbc57508060e00151155b8015611bcc575060008160200151115b8015611bdf575080602001518160400151115b8015611bef575080602001514210155b8015611c4557508160800151600160008360a0015173ffffffffffffffffffffffffffffffffffffffff1673ffffffffffffffffffffffffffffffffffffffff1681526020019081526020016000206000015410155b15611c7f57600182600001516002604051602001611c64929190614865565b60405160208183030381529060405294509450505050611ca6565b50508080600101915050611831565b50600060405180602001604052806000815250915091505b9250929050565b60048181548110611cbd57600080fd5b90600052602060002090600602016000915090508060000154908060010160009054906101000a900473ffffffffffffffffffffffffffffffffffffffff1690806002018054611d0c906147b9565b80601f0160208091040260200160405190810160405280929190818152602001828054611d38906147b9565b8015611d855780601f10611d5a57610100808354040283529160200191611d85565b820191906000526020600020905b815481529060010190602001808311611d6857829003601f168201915b5050505050908060030154908060040154908060050160009054906101000a900473ffffffffffffffffffffffffffffffffffffffff16908060050160149054906101000a900460ff16908060050160159054906101000a900460ff16908060050160169054906101000a900460ff16905089565b600260003373ffffffffffffffffffffffffffffffffffffffff1673ffffffffffffffffffffffffffffffffffffffff16815260200190815260200160002060010160149054906101000a900460ff16611e89576040517f08c379a0000000000000000000000000000000000000000000000000000000008152600401611e80906148da565b60405180910390fd5b3373ffffffffffffffffffffffffffffffffffffffff16600260003373ffffffffffffffffffffffffffffffffffffffff1673ffffffffffffffffffffffffffffffffffffffff16815260200190815260200160002060010160009054906101000a900473ffffffffffffffffffffffffffffffffffffffff1673ffffffffffffffffffffffffffffffffffffffff1614611f59576040517f08c379a0000000000000000000000000000000000000000000000000000000008152600401611f5090614946565b60405180910390fd5b6000338483604051602001611f7093929190614a0b565b6040516020818303038152906040528051906020012090506005600082815260200190815260200160002060009054906101000a900460ff1615611fe9576040517f08c379a0000000000000000000000000000000000000000000000000000000008152600401611fe090614a90565b60405180910390fd5b60046040518061012001604052806003600081548092919061200a90614ab0565b9190505581526020013373ffffffffffffffffffffffffffffffffffffffff168152602001868152602001858152602001848152602001600073ffffffffffffffffffffffffffffffffffffffff1681526020016001151581526020016000151581526020016000151581525090806001815401808255809150506001900390600052602060002090600602016000909190919091506000820151816000015560208201518160010160006101000a81548173ffffffffffffffffffffffffffffffffffffffff021916908373ffffffffffffffffffffffffffffffffffffffff16021790555060408201518160020190816121069190614ca4565b50606082015181600301556080820151816004015560a08201518160050160006101000a81548173ffffffffffffffffffffffffffffffffffffffff021916908373ffffffffffffffffffffffffffffffffffffffff16021790555060c08201518160050160146101000a81548160ff02191690831515021790555060e08201518160050160156101000a81548160ff0219169083151502179055506101008201518160050160166101000a81548160ff021916908315150217905550505060016005600083815260200190815260200160002060006101000a81548160ff0219169083151502179055506001600260003373ffffffffffffffffffffffffffffffffffffffff1673ffffffffffffffffffffffffffffffffffffffff16815260200190815260200160002060010160156101000a81548160ff0219169083151502179055503373ffffffffffffffffffffffffffffffffffffffff167fc92e830c7a6579616c317c0684d2eaf53fb889033a419d9b261f5e76594babbf6001604051612293919061368c565b60405180910390a250505050565b60026020528060005260406000206000915090508060000154908060010160009054906101000a900473ffffffffffffffffffffffffffffffffffffffff16908060010160149054906101000a900460ff16908060010160159054906101000a900460ff16905084565b600260003373ffffffffffffffffffffffffffffffffffffffff1673ffffffffffffffffffffffffffffffffffffffff16815260200190815260200160002060010160149054906101000a900460ff1661239a576040517f08c379a0000000000000000000000000000000000000000000000000000000008152600401612391906148da565b60405180910390fd5b3373ffffffffffffffffffffffffffffffffffffffff16600260003373ffffffffffffffffffffffffffffffffffffffff1673ffffffffffffffffffffffffffffffffffffffff16815260200190815260200160002060010160009054906101000a900473ffffffffffffffffffffffffffffffffffffffff1673ffffffffffffffffffffffffffffffffffffffff161461246a576040517f08c379a000000000000000000000000000000000000000000000000000000000815260040161246190614946565b60405180910390fd5b61247261327a565b60048054905082106124b9576040517f08c379a00000000000000000000000000000000000000000000000000000000081526004016124b090614dc2565b60405180910390fd5b6000600483815481106124cf576124ce6141cd565b5b906000526020600020906006020190503373ffffffffffffffffffffffffffffffffffffffff168160010160009054906101000a900473ffffffffffffffffffffffffffffffffffffffff1673ffffffffffffffffffffffffffffffffffffffff1614612571576040517f08c379a000000000000000000000000000000000000000000000000000000000815260040161256890614e2e565b60405180910390fd5b600073ffffffffffffffffffffffffffffffffffffffff168160050160009054906101000a900473ffffffffffffffffffffffffffffffffffffffff1673ffffffffffffffffffffffffffffffffffffffff1603612604576040517f08c379a00000000000000000000000000000000000000000000000000000000081526004016125fb90614e9a565b60405180910390fd5b600115158160050160159054906101000a900460ff1615151461265c576040517f08c379a000000000000000000000000000000000000000000000000000000000815260040161265390614f06565b60405180910390fd5b8060050160169054906101000a900460ff16156126ae576040517f08c379a00000000000000000000000000000000000000000000000000000000081526004016126a590614f72565b60405180910390fd5b60008160050160009054906101000a900473ffffffffffffffffffffffffffffffffffffffff169050600160008273ffffffffffffffffffffffffffffffffffffffff1673ffffffffffffffffffffffffffffffffffffffff16815260200190815260200160002060010160159054906101000a900460ff16612766576040517f08c379a000000000000000000000000000000000000000000000000000000000815260040161275d90614fde565b60405180910390fd5b6040518061010001604052808360000154815260200142815260200162015180856127919190614ffe565b4261279c919061440f565b8152602001836003015481526020013373ffffffffffffffffffffffffffffffffffffffff1681526020018273ffffffffffffffffffffffffffffffffffffffff1681526020016001151581526020016000151581525060066000846000015481526020019081526020016000206000820151816000015560208201518160010155604082015181600201556060820151816003015560808201518160040160006101000a81548173ffffffffffffffffffffffffffffffffffffffff021916908373ffffffffffffffffffffffffffffffffffffffff16021790555060a08201518160050160006101000a81548173ffffffffffffffffffffffffffffffffffffffff021916908373ffffffffffffffffffffffffffffffffffffffff16021790555060c08201518160050160146101000a81548160ff02191690831515021790555060e08201518160050160156101000a81548160ff02191690831515021790555090505060018260050160166101000a81548160ff02191690831515021790555060018060008373ffffffffffffffffffffffffffffffffffffffff1673ffffffffffffffffffffffffffffffffffffffff16815260200190815260200160002060010160146101000a81548160ff0219169083151502179055508073ffffffffffffffffffffffffffffffffffffffff163373ffffffffffffffffffffffffffffffffffffffff167fd67e7c1f35e9c80162b0ac820400da21a5dabb12ceb43b4771e6019266e0f4d084600001546040516129db919061406e565b60405180910390a350506129ed6132c0565b5050565b600160003373ffffffffffffffffffffffffffffffffffffffff1673ffffffffffffffffffffffffffffffffffffffff16815260200190815260200160002060010160159054906101000a900460ff16612a80576040517f08c379a0000000000000000000000000000000000000000000000000000000008152600401612a77906140d5565b60405180910390fd5b3373ffffffffffffffffffffffffffffffffffffffff16600160003373ffffffffffffffffffffffffffffffffffffffff1673ffffffffffffffffffffffffffffffffffffffff16815260200190815260200160002060010160009054906101000a900473ffffffffffffffffffffffffffffffffffffffff1673ffffffffffffffffffffffffffffffffffffffff1614612b50576040517f08c379a0000000000000000000000000000000000000000000000000000000008152600401612b4790614141565b60405180910390fd5b612b5861327a565b60003411612b9b576040517f08c379a0000000000000000000000000000000000000000000000000000000008152600401612b929061508c565b60405180910390fd5b34600160003373ffffffffffffffffffffffffffffffffffffffff1673ffffffffffffffffffffffffffffffffffffffff1681526020019081526020016000206000016000828254612bed919061440f565b92505081905550612bfc6132c0565b565b612c06613543565b60005b60048054905081101561301757600060048281548110612c2c57612c2b6141cd565b5b906000526020600020906006020160405180610120016040529081600082015481526020016001820160009054906101000a900473ffffffffffffffffffffffffffffffffffffffff1673ffffffffffffffffffffffffffffffffffffffff1673ffffffffffffffffffffffffffffffffffffffff168152602001600282018054612cb6906147b9565b80601f0160208091040260200160405190810160405280929190818152602001828054612ce2906147b9565b8015612d2f5780601f10612d0457610100808354040283529160200191612d2f565b820191906000526020600020905b815481529060010190602001808311612d1257829003601f168201915b5050505050815260200160038201548152602001600482015481526020016005820160009054906101000a900473ffffffffffffffffffffffffffffffffffffffff1673ffffffffffffffffffffffffffffffffffffffff1673ffffffffffffffffffffffffffffffffffffffff1681526020016005820160149054906101000a900460ff161515151581526020016005820160159054906101000a900460ff161515151581526020016005820160169054906101000a900460ff16151515158152505090503373ffffffffffffffffffffffffffffffffffffffff16600660008360000151815260200190815260200160002060050160009054906101000a900473ffffffffffffffffffffffffffffffffffffffff1673ffffffffffffffffffffffffffffffffffffffff161480612ece57503373ffffffffffffffffffffffffffffffffffffffff16600660008360000151815260200190815260200160002060040160009054906101000a900473ffffffffffffffffffffffffffffffffffffffff1673ffffffffffffffffffffffffffffffffffffffff16145b1561300957600660008260000151815260200190815260200160002060405180610100016040529081600082015481526020016001820154815260200160028201548152602001600382015481526020016004820160009054906101000a900473ffffffffffffffffffffffffffffffffffffffff1673ffffffffffffffffffffffffffffffffffffffff1673ffffffffffffffffffffffffffffffffffffffff1681526020016005820160009054906101000a900473ffffffffffffffffffffffffffffffffffffffff1673ffffffffffffffffffffffffffffffffffffffff1673ffffffffffffffffffffffffffffffffffffffff1681526020016005820160149054906101000a900460ff161515151581526020016005820160159054906101000a900460ff16151515158152505092505050613053565b508080600101915050612c09565b506040517f08c379a000000000000000000000000000000000000000000000000000000000815260040161304a906150f8565b60405180910390fd5b90565b60066020528060005260406000206000915090508060000154908060010154908060020154908060030154908060040160009054906101000a900473ffffffffffffffffffffffffffffffffffffffff16908060050160009054906101000a900473ffffffffffffffffffffffffffffffffffffffff16908060050160149054906101000a900460ff16908060050160159054906101000a900460ff16905088565b6131006135b8565b600160003373ffffffffffffffffffffffffffffffffffffffff1673ffffffffffffffffffffffffffffffffffffffff16815260200190815260200160002060010160159054906101000a900460ff1661318f576040517f08c379a000000000000000000000000000000000000000000000000000000000815260040161318690614141565b60405180910390fd5b600160003373ffffffffffffffffffffffffffffffffffffffff1673ffffffffffffffffffffffffffffffffffffffff168152602001908152602001600020604051806080016040529081600082015481526020016001820160009054906101000a900473ffffffffffffffffffffffffffffffffffffffff1673ffffffffffffffffffffffffffffffffffffffff1673ffffffffffffffffffffffffffffffffffffffff1681526020016001820160149054906101000a900460ff161515151581526020016001820160159054906101000a900460ff161515151581525050905090565b60035481565b6002600054036132b6576040517f3ee5aeb500000000000000000000000000000000000000000000000000000000815260040160405180910390fd5b6002600081905550565b6001600081905550565b60005b6004805490508110156134fe576000600482815481106132f0576132ef6141cd565b5b9060005260206000209060060201905060006006600083600001548152602001908152602001600020905060008160050160009054906101000a900473ffffffffffffffffffffffffffffffffffffffff16905060008260050160146101000a81548160ff02191690831515021790555060008260050160156101000a81548160ff02191690831515021790555060008260050160006101000a81548173ffffffffffffffffffffffffffffffffffffffff021916908373ffffffffffffffffffffffffffffffffffffffff16021790555060008260010181905550600082600201819055506000826003018190555060008360050160166101000a81548160ff02191690831515021790555060008360050160156101000a81548160ff02191690831515021790555060008360050160006101000a81548173ffffffffffffffffffffffffffffffffffffffff021916908373ffffffffffffffffffffffffffffffffffffffff160217905550600073ffffffffffffffffffffffffffffffffffffffff168173ffffffffffffffffffffffffffffffffffffffff16146134ee576000600160008373ffffffffffffffffffffffffffffffffffffffff1673ffffffffffffffffffffffffffffffffffffffff16815260200190815260200160002060010160146101000a81548160ff0219169083151502179055505b50505080806001019150506132cd565b50565b604051806080016040528060008152602001600073ffffffffffffffffffffffffffffffffffffffff1681526020016000151581526020016000151581525090565b60405180610100016040528060008152602001600081526020016000815260200160008152602001600073ffffffffffffffffffffffffffffffffffffffff168152602001600073ffffffffffffffffffffffffffffffffffffffff1681526020016000151581526020016000151581525090565b604051806080016040528060008152602001600073ffffffffffffffffffffffffffffffffffffffff1681526020016000151581526020016000151581525090565b6000604051905090565b600080fd5b600080fd5b6000819050919050565b6136218161360e565b811461362c57600080fd5b50565b60008135905061363e81613618565b92915050565b60006020828403121561365a57613659613604565b5b60006136688482850161362f565b91505092915050565b60008115159050919050565b61368681613671565b82525050565b60006020820190506136a1600083018461367d565b92915050565b6000819050919050565b6136ba816136a7565b81146136c557600080fd5b50565b6000813590506136d7816136b1565b92915050565b6000602082840312156136f3576136f2613604565b5b6000613701848285016136c8565b91505092915050565b600073ffffffffffffffffffffffffffffffffffffffff82169050919050565b60006137358261370a565b9050919050565b6137458161372a565b811461375057600080fd5b50565b6000813590506137628161373c565b92915050565b60006020828403121561377e5761377d613604565b5b600061378c84828501613753565b91505092915050565b61379e816136a7565b82525050565b6137ad8161372a565b82525050565b60006080820190506137c86000830187613795565b6137d560208301866137a4565b6137e2604083018561367d565b6137ef606083018461367d565b95945050505050565b600080fd5b600080fd5b600080fd5b60008083601f84011261381d5761381c6137f8565b5b8235905067ffffffffffffffff81111561383a576138396137fd565b5b60208301915083600182028301111561385657613855613802565b5b9250929050565b6000806020838503121561387457613873613604565b5b600083013567ffffffffffffffff81111561389257613891613609565b5b61389e85828601613807565b92509250509250929050565b600081519050919050565b600082825260208201905092915050565b6000819050602082019050919050565b6138df816136a7565b82525050565b6138ee8161372a565b82525050565b600081519050919050565b600082825260208201905092915050565b60005b8381101561392e578082015181840152602081019050613913565b60008484015250505050565b6000601f19601f8301169050919050565b6000613956826138f4565b61396081856138ff565b9350613970818560208601613910565b6139798161393a565b840191505092915050565b61398d81613671565b82525050565b6000610120830160008301516139ac60008601826138d6565b5060208301516139bf60208601826138e5565b50604083015184820360408601526139d7828261394b565b91505060608301516139ec60608601826138d6565b5060808301516139ff60808601826138d6565b5060a0830151613a1260a08601826138e5565b5060c0830151613a2560c0860182613984565b5060e0830151613a3860e0860182613984565b50610100830151613a4d610100860182613984565b508091505092915050565b6000613a648383613993565b905092915050565b6000602082019050919050565b6000613a84826138aa565b613a8e81856138b5565b935083602082028501613aa0856138c6565b8060005b85811015613adc5784840389528151613abd8582613a58565b9450613ac883613a6c565b925060208a01995050600181019050613aa4565b50829750879550505050505092915050565b60006020820190508181036000830152613b088184613a79565b905092915050565b608082016000820151613b2660008501826138d6565b506020820151613b3960208501826138e5565b506040820151613b4c6040850182613984565b506060820151613b5f6060850182613984565b50505050565b6000608082019050613b7a6000830184613b10565b92915050565b600081519050919050565b600082825260208201905092915050565b6000613ba782613b80565b613bb18185613b8b565b9350613bc1818560208601613910565b613bca8161393a565b840191505092915050565b6000604082019050613bea600083018561367d565b8181036020830152613bfc8184613b9c565b90509392505050565b600082825260208201905092915050565b6000613c21826138f4565b613c2b8185613c05565b9350613c3b818560208601613910565b613c448161393a565b840191505092915050565b600061012082019050613c65600083018c613795565b613c72602083018b6137a4565b8181036040830152613c84818a613c16565b9050613c936060830189613795565b613ca06080830188613795565b613cad60a08301876137a4565b613cba60c083018661367d565b613cc760e083018561367d565b613cd561010083018461367d565b9a9950505050505050505050565b600080fd5b7f4e487b7100000000000000000000000000000000000000000000000000000000600052604160045260246000fd5b613d208261393a565b810181811067ffffffffffffffff82111715613d3f57613d3e613ce8565b5b80604052505050565b6000613d526135fa565b9050613d5e8282613d17565b919050565b600067ffffffffffffffff821115613d7e57613d7d613ce8565b5b613d878261393a565b9050602081019050919050565b82818337600083830152505050565b6000613db6613db184613d63565b613d48565b905082815260208101848484011115613dd257613dd1613ce3565b5b613ddd848285613d94565b509392505050565b600082601f830112613dfa57613df96137f8565b5b8135613e0a848260208601613da3565b91505092915050565b600080600060608486031215613e2c57613e2b613604565b5b600084013567ffffffffffffffff811115613e4a57613e49613609565b5b613e5686828701613de5565b9350506020613e67868287016136c8565b9250506040613e78868287016136c8565b9150509250925092565b60008060408385031215613e9957613e98613604565b5b6000613ea7858286016136c8565b9250506020613eb8858286016136c8565b9150509250929050565b61010082016000820151613ed960008501826138d6565b506020820151613eec60208501826138d6565b506040820151613eff60408501826138d6565b506060820151613f1260608501826138d6565b506080820151613f2560808501826138e5565b5060a0820151613f3860a08501826138e5565b5060c0820151613f4b60c0850182613984565b5060e0820151613f5e60e0850182613984565b50505050565b600061010082019050613f7a6000830184613ec2565b92915050565b600061010082019050613f96600083018b613795565b613fa3602083018a613795565b613fb06040830189613795565b613fbd6060830188613795565b613fca60808301876137a4565b613fd760a08301866137a4565b613fe460c083018561367d565b613ff160e083018461367d565b9998505050505050505050565b60808201600082015161401460008501826138d6565b50602082015161402760208501826138e5565b50604082015161403a6040850182613984565b50606082015161404d6060850182613984565b50505050565b60006080820190506140686000830184613ffe565b92915050565b60006020820190506140836000830184613795565b92915050565b7f54656e616e7420556e7265676973746572656400000000000000000000000000600082015250565b60006140bf601383613c05565b91506140ca82614089565b602082019050919050565b600060208201905081810360008301526140ee816140b2565b9050919050565b7f556e726567697374657265642074656e616e7400000000000000000000000000600082015250565b600061412b601383613c05565b9150614136826140f5565b602082019050919050565b6000602082019050818103600083015261415a8161411e565b9050919050565b7f496e76616c696420686f7374656c204964000000000000000000000000000000600082015250565b6000614197601183613c05565b91506141a282614161565b602082019050919050565b600060208201905081810360008301526141c68161418a565b9050919050565b7f4e487b7100000000000000000000000000000000000000000000000000000000600052603260045260246000fd5b7f486f7374656c206f636375706965640000000000000000000000000000000000600082015250565b6000614232600f83613c05565b915061423d826141fc565b602082019050919050565b6000602082019050818103600083015261426181614225565b9050919050565b7f54616b656e000000000000000000000000000000000000000000000000000000600082015250565b600061429e600583613c05565b91506142a982614268565b602082019050919050565b600060208201905081810360008301526142cd81614291565b9050919050565b7f496e73756666696369656e742046756e64730000000000000000000000000000600082015250565b600061430a601283613c05565b9150614315826142d4565b602082019050919050565b60006020820190508181036000830152614339816142fd565b9050919050565b7f4c616e646c6f7264207265676973746572656400000000000000000000000000600082015250565b6000614376601383613c05565b915061438182614340565b602082019050919050565b600060208201905081810360008301526143a581614369565b9050919050565b7f4e487b7100000000000000000000000000000000000000000000000000000000600052601160045260246000fd5b60006143e6826136a7565b91506143f1836136a7565b9250828203905081811115614409576144086143ac565b5b92915050565b600061441a826136a7565b9150614425836136a7565b925082820190508082111561443d5761443c6143ac565b5b92915050565b7f496e76616c696420616d6f756e74000000000000000000000000000000000000600082015250565b6000614479600e83613c05565b915061448482614443565b602082019050919050565b600060208201905081810360008301526144a88161446c565b9050919050565b7f696e73756666696369656e742066756e64732000000000000000000000000000600082015250565b60006144e5601383613c05565b91506144f0826144af565b602082019050919050565b60006020820190508181036000830152614514816144d8565b9050919050565b7f696e73756666696369656e742066756e64730000000000000000000000000000600082015250565b6000614551601283613c05565b915061455c8261451b565b602082019050919050565b6000602082019050818103600083015261458081614544565b9050919050565b7f4e6f742072656769737465726564000000000000000000000000000000000000600082015250565b60006145bd600e83613c05565b91506145c882614587565b602082019050919050565b600060208201905081810360008301526145ec816145b0565b9050919050565b600081905092915050565b50565b600061460e6000836145f3565b9150614619826145fe565b600082019050919050565b600061462f82614601565b9150819050919050565b7f5769746864726177206661696c65640000000000000000000000000000000000600082015250565b600061466f600f83613c05565b915061467a82614639565b602082019050919050565b6000602082019050818103600083015261469e81614662565b9050919050565b7f54656e616e742072656769737465726564000000000000000000000000000000600082015250565b60006146db601183613c05565b91506146e6826146a5565b602082019050919050565b6000602082019050818103600083015261470a816146ce565b9050919050565b600060ff82169050919050565b61472781614711565b811461473257600080fd5b50565b6000813590506147448161471e565b92915050565b6000806040838503121561476157614760613604565b5b600061476f858286016136c8565b925050602061478085828601614735565b9150509250929050565b7f4e487b7100000000000000000000000000000000000000000000000000000000600052602260045260246000fd5b600060028204905060018216806147d157607f821691505b6020821081036147e4576147e361478a565b5b50919050565b7f556e72656769737465726564206c616e646c6f72640000000000000000000000600082015250565b6000614820601583613c05565b915061482b826147ea565b602082019050919050565b6000602082019050818103600083015261484f81614813565b9050919050565b61485f81614711565b82525050565b600060408201905061487a6000830185613795565b6148876020830184614856565b9392505050565b7f556e72656769737465726564204c616e646c6f72640000000000000000000000600082015250565b60006148c4601583613c05565b91506148cf8261488e565b602082019050919050565b600060208201905081810360008301526148f3816148b7565b9050919050565b7f4e6f74204c616e646c6f72640000000000000000000000000000000000000000600082015250565b6000614930600c83613c05565b915061493b826148fa565b602082019050919050565b6000602082019050818103600083015261495f81614923565b9050919050565b60008160601b9050919050565b600061497e82614966565b9050919050565b600061499082614973565b9050919050565b6149a86149a38261372a565b614985565b82525050565b600081905092915050565b60006149c4826138f4565b6149ce81856149ae565b93506149de818560208601613910565b80840191505092915050565b6000819050919050565b614a05614a00826136a7565b6149ea565b82525050565b6000614a178286614997565b601482019150614a2782856149b9565b9150614a3382846149f4565b602082019150819050949350505050565b7f50726f7065727479207265676973746572656400000000000000000000000000600082015250565b6000614a7a601383613c05565b9150614a8582614a44565b602082019050919050565b60006020820190508181036000830152614aa981614a6d565b9050919050565b6000614abb826136a7565b91507fffffffffffffffffffffffffffffffffffffffffffffffffffffffffffffffff8203614aed57614aec6143ac565b5b600182019050919050565b60008190508160005260206000209050919050565b60006020601f8301049050919050565b600082821b905092915050565b600060088302614b5a7fffffffffffffffffffffffffffffffffffffffffffffffffffffffffffffffff82614b1d565b614b648683614b1d565b95508019841693508086168417925050509392505050565b6000819050919050565b6000614ba1614b9c614b97846136a7565b614b7c565b6136a7565b9050919050565b6000819050919050565b614bbb83614b86565b614bcf614bc782614ba8565b848454614b2a565b825550505050565b600090565b614be4614bd7565b614bef818484614bb2565b505050565b5b81811015614c1357614c08600082614bdc565b600181019050614bf5565b5050565b601f821115614c5857614c2981614af8565b614c3284614b0d565b81016020851015614c41578190505b614c55614c4d85614b0d565b830182614bf4565b50505b505050565b600082821c905092915050565b6000614c7b60001984600802614c5d565b1980831691505092915050565b6000614c948383614c6a565b9150826002028217905092915050565b614cad826138f4565b67ffffffffffffffff811115614cc657614cc5613ce8565b5b614cd082546147b9565b614cdb828285614c17565b600060209050601f831160018114614d0e5760008415614cfc578287015190505b614d068582614c88565b865550614d6e565b601f198416614d1c86614af8565b60005b82811015614d4457848901518255600182019150602085019450602081019050614d1f565b86831015614d615784890151614d5d601f891682614c6a565b8355505b6001600288020188555050505b505050505050565b7f496e76616c69642050726f706572747920494400000000000000000000000000600082015250565b6000614dac601383613c05565b9150614db782614d76565b602082019050919050565b60006020820190508181036000830152614ddb81614d9f565b9050919050565b7f4e6f74206f776e6572206f66207468697320686f7374656c0000000000000000600082015250565b6000614e18601883613c05565b9150614e2382614de2565b602082019050919050565b60006020820190508181036000830152614e4781614e0b565b9050919050565b7f4e6f2073747564656e7420726571756573746564206974000000000000000000600082015250565b6000614e84601783613c05565b9150614e8f82614e4e565b602082019050919050565b60006020820190508181036000830152614eb381614e77565b9050919050565b7f4e6f206163746976652072657175657374000000000000000000000000000000600082015250565b6000614ef0601183613c05565b9150614efb82614eba565b602082019050919050565b60006020820190508181036000830152614f1f81614ee3565b9050919050565b7f416c7265616479206f6363757069656400000000000000000000000000000000600082015250565b6000614f5c601083613c05565b9150614f6782614f26565b602082019050919050565b60006020820190508181036000830152614f8b81614f4f565b9050919050565b7f53747564656e74206e6f74207265676973746572656400000000000000000000600082015250565b6000614fc8601683613c05565b9150614fd382614f92565b602082019050919050565b60006020820190508181036000830152614ff781614fbb565b9050919050565b6000615009826136a7565b9150615014836136a7565b9250828202615022816136a7565b91508282048414831517615039576150386143ac565b5b5092915050565b7f496e76616c696420496e70757400000000000000000000000000000000000000600082015250565b6000615076600d83613c05565b915061508182615040565b602082019050919050565b600060208201905081810360008301526150a581615069565b9050919050565b7f4e6f206163746976652072656e74616c20666f756e6400000000000000000000600082015250565b60006150e2601683613c05565b91506150ed826150ac565b602082019050919050565b60006020820190508181036000830152615111816150d5565b905091905056fea2646970667358221220191136f4fe0f135764033126ea644d9899a9bec59c8dfaa42a64fd37b9af17a264736f6c634300081c0033",
  "linkReferences": {},
  "deployedLinkReferences": {}
}