{
  "_format": "hh-sol-artifact-1",
  "contractName": "KampHostel",
  "sourceName": "contracts/KampHostel.sol",
  "abi": [
    {
      "inputs": [],
      "name": "ReentrancyGuardReentrantCall",
      "type": "error"
    },
    {
      "anonymous": false,
      "inputs": [
        {
          "indexed": true,
          "internalType": "address",
          "name": "owner",
          "type": "address"
        },
        {
          "indexed": false,
          "internalType": "bool",
          "name": "isRegistered",
          "type": "bool"
        }
      ],
      "name": "HostelOwnerRegistered",
      "type": "event"
    },
    {
      "anonymous": false,
      "inputs": [
        {
          "indexed": true,
          "internalType": "address",
          "name": "student",
          "type": "address"
        },
        {
          "indexed": false,
          "internalType": "uint256",
          "name": "proertyId",
          "type": "uint256"
        }
      ],
      "name": "HostelRequested",
      "type": "event"
    },
    {
      "anonymous": false,
      "inputs": [
        {
          "indexed": true,
          "internalType": "address",
          "name": "owner",
          "type": "address"
        },
        {
          "indexed": false,
          "internalType": "bool",
          "name": "isRegistered",
          "type": "bool"
        }
      ],
      "name": "PropertyRegistered",
      "type": "event"
    },
    {
      "anonymous": false,
      "inputs": [
        {
          "indexed": true,
          "internalType": "address",
          "name": "owner",
          "type": "address"
        },
        {
          "indexed": true,
          "internalType": "address",
          "name": "student",
          "type": "address"
        },
        {
          "indexed": false,
          "internalType": "uint256",
          "name": "hostelId",
          "type": "uint256"
        }
      ],
      "name": "ReceiptSigned",
      "type": "event"
    },
    {
      "anonymous": false,
      "inputs": [
        {
          "indexed": true,
          "internalType": "address",
          "name": "owner",
          "type": "address"
        },
        {
          "indexed": true,
          "internalType": "address",
          "name": "student",
          "type": "address"
        },
        {
          "indexed": false,
          "internalType": "uint256",
          "name": "amount",
          "type": "uint256"
        }
      ],
      "name": "RentPaid",
      "type": "event"
    },
    {
      "anonymous": false,
      "inputs": [
        {
          "indexed": true,
          "internalType": "address",
          "name": "student",
          "type": "address"
        },
        {
          "indexed": false,
          "internalType": "bool",
          "name": "isRegistered",
          "type": "bool"
        }
      ],
      "name": "StudentRegistered",
      "type": "event"
    },
    {
      "anonymous": false,
      "inputs": [
        {
          "indexed": true,
          "internalType": "address",
          "name": "user",
          "type": "address"
        },
        {
          "indexed": false,
          "internalType": "uint256",
          "name": "amount",
          "type": "uint256"
        }
      ],
      "name": "Withdrawn",
      "type": "event"
    },
    {
      "inputs": [
        {
          "internalType": "uint256",
          "name": "_hostelId",
          "type": "uint256"
        }
      ],
      "name": "autoHostelPayment",
      "outputs": [],
      "stateMutability": "nonpayable",
      "type": "function"
    },
    {
      "inputs": [
        {
          "internalType": "address",
          "name": "",
          "type": "address"
        }
      ],
      "name": "hostelOwnerProfile",
      "outputs": [
        {
          "internalType": "uint256",
          "name": "balance",
          "type": "uint256"
        },
        {
          "internalType": "address",
          "name": "user",
          "type": "address"
        },
        {
          "internalType": "bool",
          "name": "isRegistered",
          "type": "bool"
        },
        {
          "internalType": "bool",
          "name": "hasHostel",
          "type": "bool"
        }
      ],
      "stateMutability": "view",
      "type": "function"
    },
    {
      "inputs": [
        {
          "internalType": "uint256",
          "name": "_hostelId",
          "type": "uint256"
        }
      ],
      "name": "hostelRentRequest",
      "outputs": [],
      "stateMutability": "nonpayable",
      "type": "function"
    },
    {
      "inputs": [],
      "name": "indexedHostel",
      "outputs": [
        {
          "internalType": "uint256",
          "name": "",
          "type": "uint256"
        }
      ],
      "stateMutability": "view",
      "type": "function"
    },
    {
      "inputs": [
        {
          "internalType": "bytes32",
          "name": "",
          "type": "bytes32"
        }
      ],
      "name": "isHostelRegistered",
      "outputs": [
        {
          "internalType": "bool",
          "name": "",
          "type": "bool"
        }
      ],
      "stateMutability": "view",
      "type": "function"
    },
    {
      "inputs": [
        {
          "internalType": "uint256",
          "name": "",
          "type": "uint256"
        }
      ],
      "name": "issuedReceipts",
      "outputs": [
        {
          "internalType": "uint256",
          "name": "hostelId",
          "type": "uint256"
        },
        {
          "internalType": "uint256",
          "name": "startDate",
          "type": "uint256"
        },
        {
          "internalType": "uint256",
          "name": "endDate",
          "type": "uint256"
        },
        {
          "internalType": "uint256",
          "name": "roomNo",
          "type": "uint256"
        },
        {
          "internalType": "address",
          "name": "owner",
          "type": "address"
        },
        {
          "internalType": "address",
          "name": "student",
          "type": "address"
        },
        {
          "internalType": "bool",
          "name": "isSigned",
          "type": "bool"
        },
        {
          "internalType": "bool",
          "name": "isPaid",
          "type": "bool"
        },
        {
          "internalType": "string",
          "name": "hostelName",
          "type": "string"
        }
      ],
      "stateMutability": "view",
      "type": "function"
    },
    {
      "inputs": [
        {
          "internalType": "uint256",
          "name": "",
          "type": "uint256"
        }
      ],
      "name": "listedHostels",
      "outputs": [
        {
          "internalType": "uint256",
          "name": "hostelId",
          "type": "uint256"
        },
        {
          "internalType": "address",
          "name": "owner",
          "type": "address"
        },
        {
          "internalType": "string",
          "name": "location",
          "type": "string"
        },
        {
          "internalType": "uint256",
          "name": "roomNo",
          "type": "uint256"
        },
        {
          "internalType": "uint256",
          "name": "rentAmount",
          "type": "uint256"
        },
        {
          "internalType": "address",
          "name": "requestedBy",
          "type": "address"
        },
        {
          "internalType": "bool",
          "name": "isRegistered",
          "type": "bool"
        },
        {
          "internalType": "bool",
          "name": "isRequested",
          "type": "bool"
        },
        {
          "internalType": "bool",
          "name": "isOccupied",
          "type": "bool"
        },
        {
          "internalType": "string",
          "name": "hostelName",
          "type": "string"
        }
      ],
      "stateMutability": "view",
      "type": "function"
    },
    {
      "inputs": [
        {
          "internalType": "string",
          "name": "_location",
          "type": "string"
        },
        {
          "internalType": "uint256",
          "name": "_roomNo",
          "type": "uint256"
        },
        {
          "internalType": "uint256",
          "name": "_amount",
          "type": "uint256"
        },
        {
          "internalType": "string",
          "name": "_name",
          "type": "string"
        }
      ],
      "name": "registerHostel",
      "outputs": [],
      "stateMutability": "nonpayable",
      "type": "function"
    },
    {
      "inputs": [],
      "name": "registerHostelOwner",
      "outputs": [],
      "stateMutability": "nonpayable",
      "type": "function"
    },
    {
      "inputs": [],
      "name": "registerStudent",
      "outputs": [],
      "stateMutability": "nonpayable",
      "type": "function"
    },
    {
      "inputs": [],
      "name": "returnAllHostels",
      "outputs": [
        {
          "components": [
            {
              "internalType": "uint256",
              "name": "hostelId",
              "type": "uint256"
            },
            {
              "internalType": "address",
              "name": "owner",
              "type": "address"
            },
            {
              "internalType": "string",
              "name": "location",
              "type": "string"
            },
            {
              "internalType": "uint256",
              "name": "roomNo",
              "type": "uint256"
            },
            {
              "internalType": "uint256",
              "name": "rentAmount",
              "type": "uint256"
            },
            {
              "internalType": "address",
              "name": "requestedBy",
              "type": "address"
            },
            {
              "internalType": "bool",
              "name": "isRegistered",
              "type": "bool"
            },
            {
              "internalType": "bool",
              "name": "isRequested",
              "type": "bool"
            },
            {
              "internalType": "bool",
              "name": "isOccupied",
              "type": "bool"
            },
            {
              "internalType": "string",
              "name": "hostelName",
              "type": "string"
            }
          ],
          "internalType": "struct KampHostel.Hostel[]",
          "name": "",
          "type": "tuple[]"
        }
      ],
      "stateMutability": "view",
      "type": "function"
    },
    {
      "inputs": [],
      "name": "returnHostelOwnerProfile",
      "outputs": [
        {
          "components": [
            {
              "internalType": "uint256",
              "name": "balance",
              "type": "uint256"
            },
            {
              "internalType": "address",
              "name": "user",
              "type": "address"
            },
            {
              "internalType": "bool",
              "name": "isRegistered",
              "type": "bool"
            },
            {
              "internalType": "bool",
              "name": "hasHostel",
              "type": "bool"
            }
          ],
          "internalType": "struct KampHostel.HostelOwner",
          "name": "",
          "type": "tuple"
        }
      ],
      "stateMutability": "view",
      "type": "function"
    },
    {
      "inputs": [],
      "name": "returnHostelReceipt",
      "outputs": [
        {
          "components": [
            {
              "internalType": "uint256",
              "name": "hostelId",
              "type": "uint256"
            },
            {
              "internalType": "uint256",
              "name": "startDate",
              "type": "uint256"
            },
            {
              "internalType": "uint256",
              "name": "endDate",
              "type": "uint256"
            },
            {
              "internalType": "uint256",
              "name": "roomNo",
              "type": "uint256"
            },
            {
              "internalType": "address",
              "name": "owner",
              "type": "address"
            },
            {
              "internalType": "address",
              "name": "student",
              "type": "address"
            },
            {
              "internalType": "bool",
              "name": "isSigned",
              "type": "bool"
            },
            {
              "internalType": "bool",
              "name": "isPaid",
              "type": "bool"
            },
            {
              "internalType": "string",
              "name": "hostelName",
              "type": "string"
            }
          ],
          "internalType": "struct KampHostel.IssuedReceipt",
          "name": "",
          "type": "tuple"
        }
      ],
      "stateMutability": "view",
      "type": "function"
    },
    {
      "inputs": [],
      "name": "returnStudentProfile",
      "outputs": [
        {
          "components": [
            {
              "internalType": "uint256",
              "name": "balance",
              "type": "uint256"
            },
            {
              "internalType": "address",
              "name": "student",
              "type": "address"
            },
            {
              "internalType": "bool",
              "name": "hasActiveHostel",
              "type": "bool"
            },
            {
              "internalType": "bool",
              "name": "isRegistered",
              "type": "bool"
            }
          ],
          "internalType": "struct KampHostel.Student",
          "name": "",
          "type": "tuple"
        }
      ],
      "stateMutability": "view",
      "type": "function"
    },
    {
      "inputs": [
        {
          "internalType": "uint256",
          "name": "_hostelId",
          "type": "uint256"
        },
        {
          "internalType": "uint256",
          "name": "_durationInDays",
          "type": "uint256"
        }
      ],
      "name": "signHostelReceipt",
      "outputs": [],
      "stateMutability": "nonpayable",
      "type": "function"
    },
    {
      "inputs": [],
      "name": "studentDeposit",
      "outputs": [],
      "stateMutability": "payable",
      "type": "function"
    },
    {
      "inputs": [
        {
          "internalType": "address",
          "name": "",
          "type": "address"
        }
      ],
      "name": "studentProfile",
      "outputs": [
        {
          "internalType": "uint256",
          "name": "balance",
          "type": "uint256"
        },
        {
          "internalType": "address",
          "name": "student",
          "type": "address"
        },
        {
          "internalType": "bool",
          "name": "hasActiveHostel",
          "type": "bool"
        },
        {
          "internalType": "bool",
          "name": "isRegistered",
          "type": "bool"
        }
      ],
      "stateMutability": "view",
      "type": "function"
    },
    {
      "inputs": [],
      "name": "timedStateReset",
      "outputs": [],
      "stateMutability": "nonpayable",
      "type": "function"
    },
    {
      "inputs": [
        {
          "internalType": "uint256",
          "name": "_amount",
          "type": "uint256"
        }
      ],
      "name": "userWithdraw",
      "outputs": [],
      "stateMutability": "nonpayable",
      "type": "function"
    },
    {
      "stateMutability": "payable",
      "type": "receive"
    }
  ],
  "bytecode": "0x6080604052348015600f57600080fd5b506001600081905550615171806100276000396000f3fe6080604052600436106101185760003560e01c8063634aee16116100a0578063b9a8736e11610064578063b9a8736e14610382578063c9522e6d146103ad578063d80a492c146103c4578063e2ffabab14610409578063e6926922146104345761011f565b8063634aee161461029e57806372b8fb61146102c95780637da2b3881461030f57806393fd93611461034f57806398564c4f146103785761011f565b806319e6a3a1116100e757806319e6a3a1146101ca57806326d784f21461020a5780633b9056bf14610233578063429796581461025c5780635e0d085c146102735761011f565b8063041a1a1614610124578063067c7afd14610161578063138cb41b1461018a5780631789a792146101a15761011f565b3661011f57005b600080fd5b34801561013057600080fd5b5061014b600480360381019061014691906135f9565b61045f565b6040516101589190613641565b60405180910390f35b34801561016d57600080fd5b5061018860048036038101906101839190613692565b61047f565b005b34801561019657600080fd5b5061019f61082a565b005b3480156101ad57600080fd5b506101c860048036038101906101c39190613805565b610a1c565b005b3480156101d657600080fd5b506101f160048036038101906101ec9190613902565b610ee1565b604051610201949392919061394d565b60405180910390f35b34801561021657600080fd5b50610231600480360381019061022c9190613692565b610f4b565b005b34801561023f57600080fd5b5061025a60048036038101906102559190613692565b61135e565b005b34801561026857600080fd5b5061027161175b565b005b34801561027f57600080fd5b506102886119dd565b6040516102959190613be1565b60405180910390f35b3480156102aa57600080fd5b506102b3611c7c565b6040516102c09190613c58565b60405180910390f35b3480156102d557600080fd5b506102f060048036038101906102eb9190613692565b611df8565b6040516103069a99989796959493929190613cbd565b60405180910390f35b34801561031b57600080fd5b5061033660048036038101906103319190613902565b611fd3565b604051610346949392919061394d565b60405180910390f35b34801561035b57600080fd5b5061037660048036038101906103719190613d67565b61203d565b005b6103806127cc565b005b34801561038e57600080fd5b506103976129d9565b6040516103a49190613e6c565b60405180910390f35b3480156103b957600080fd5b506103c2612f55565b005b3480156103d057600080fd5b506103eb60048036038101906103e69190613692565b6131ad565b60405161040099989796959493929190613e8e565b60405180910390f35b34801561041557600080fd5b5061041e6132dd565b60405161042b9190613f77565b60405180910390f35b34801561044057600080fd5b50610449613459565b6040516104569190613f92565b60405180910390f35b60056020528060005260406000206000915054906101000a900460ff1681565b600160003373ffffffffffffffffffffffffffffffffffffffff1673ffffffffffffffffffffffffffffffffffffffff16815260200190815260200160002060010160159054906101000a900460ff1661050e576040517f08c379a000000000000000000000000000000000000000000000000000000000815260040161050590613ff9565b60405180910390fd5b3373ffffffffffffffffffffffffffffffffffffffff16600160003373ffffffffffffffffffffffffffffffffffffffff1673ffffffffffffffffffffffffffffffffffffffff16815260200190815260200160002060010160009054906101000a900473ffffffffffffffffffffffffffffffffffffffff1673ffffffffffffffffffffffffffffffffffffffff16146105de576040517f08c379a00000000000000000000000000000000000000000000000000000000081526004016105d590614065565b60405180910390fd5b6004805490508110610625576040517f08c379a000000000000000000000000000000000000000000000000000000000815260040161061c906140d1565b60405180910390fd5b60006004828154811061063b5761063a6140f1565b5b906000526020600020906007020190508060050160169054906101000a900460ff161561069d576040517f08c379a00000000000000000000000000000000000000000000000000000000081526004016106949061416c565b60405180910390fd5b8060050160159054906101000a900460ff16156106ef576040517f08c379a00000000000000000000000000000000000000000000000000000000081526004016106e6906141d8565b60405180910390fd5b8060040154600160003373ffffffffffffffffffffffffffffffffffffffff1673ffffffffffffffffffffffffffffffffffffffff168152602001908152602001600020600001541015610778576040517f08c379a000000000000000000000000000000000000000000000000000000000815260040161076f90614244565b60405180910390fd5b60018160050160156101000a81548160ff021916908315150217905550338160050160006101000a81548173ffffffffffffffffffffffffffffffffffffffff021916908373ffffffffffffffffffffffffffffffffffffffff1602179055503373ffffffffffffffffffffffffffffffffffffffff167f17dc8a6307cde01046095a43d03fbe269780edc3e5121ea854656b886e52bc858360405161081e9190613f92565b60405180910390a25050565b600260003373ffffffffffffffffffffffffffffffffffffffff1673ffffffffffffffffffffffffffffffffffffffff16815260200190815260200160002060010160149054906101000a900460ff16156108ba576040517f08c379a00000000000000000000000000000000000000000000000000000000081526004016108b1906142b0565b60405180910390fd5b6040518060800160405280600081526020013373ffffffffffffffffffffffffffffffffffffffff16815260200160011515815260200160001515815250600260003373ffffffffffffffffffffffffffffffffffffffff1673ffffffffffffffffffffffffffffffffffffffff1681526020019081526020016000206000820151816000015560208201518160010160006101000a81548173ffffffffffffffffffffffffffffffffffffffff021916908373ffffffffffffffffffffffffffffffffffffffff16021790555060408201518160010160146101000a81548160ff02191690831515021790555060608201518160010160156101000a81548160ff0219169083151502179055509050503373ffffffffffffffffffffffffffffffffffffffff167fe68b77078f1ecafc2e6ae9f345a86800a0be45e33112ae25c830ab8ccf2867b06001604051610a129190613641565b60405180910390a2565b600260003373ffffffffffffffffffffffffffffffffffffffff1673ffffffffffffffffffffffffffffffffffffffff16815260200190815260200160002060010160149054906101000a900460ff16610aab576040517f08c379a0000000000000000000000000000000000000000000000000000000008152600401610aa29061431c565b60405180910390fd5b3373ffffffffffffffffffffffffffffffffffffffff16600260003373ffffffffffffffffffffffffffffffffffffffff1673ffffffffffffffffffffffffffffffffffffffff16815260200190815260200160002060010160009054906101000a900473ffffffffffffffffffffffffffffffffffffffff1673ffffffffffffffffffffffffffffffffffffffff1614610b7b576040517f08c379a0000000000000000000000000000000000000000000000000000000008152600401610b7290614388565b60405180910390fd5b6000338584604051602001610b929392919061444d565b6040516020818303038152906040528051906020012090506005600082815260200190815260200160002060009054906101000a900460ff1615610c0b576040517f08c379a0000000000000000000000000000000000000000000000000000000008152600401610c02906144d2565b60405180910390fd5b600460405180610140016040528060036000815480929190610c2c90614521565b9190505581526020013373ffffffffffffffffffffffffffffffffffffffff168152602001878152602001868152602001858152602001600073ffffffffffffffffffffffffffffffffffffffff1681526020016001151581526020016000151581526020016000151581526020018481525090806001815401808255809150506001900390600052602060002090600702016000909190919091506000820151816000015560208201518160010160006101000a81548173ffffffffffffffffffffffffffffffffffffffff021916908373ffffffffffffffffffffffffffffffffffffffff1602179055506040820151816002019081610d2e9190614775565b50606082015181600301556080820151816004015560a08201518160050160006101000a81548173ffffffffffffffffffffffffffffffffffffffff021916908373ffffffffffffffffffffffffffffffffffffffff16021790555060c08201518160050160146101000a81548160ff02191690831515021790555060e08201518160050160156101000a81548160ff0219169083151502179055506101008201518160050160166101000a81548160ff021916908315150217905550610120820151816006019081610e019190614775565b50505060016005600083815260200190815260200160002060006101000a81548160ff0219169083151502179055506001600260003373ffffffffffffffffffffffffffffffffffffffff1673ffffffffffffffffffffffffffffffffffffffff16815260200190815260200160002060010160156101000a81548160ff0219169083151502179055503373ffffffffffffffffffffffffffffffffffffffff167fc92e830c7a6579616c317c0684d2eaf53fb889033a419d9b261f5e76594babbf6001604051610ed29190613641565b60405180910390a25050505050565b60016020528060005260406000206000915090508060000154908060010160009054906101000a900473ffffffffffffffffffffffffffffffffffffffff16908060010160149054906101000a900460ff16908060010160159054906101000a900460ff16905084565b610f5361345f565b6004805490508110610f9a576040517f08c379a0000000000000000000000000000000000000000000000000000000008152600401610f9190614893565b60405180910390fd5b600060048281548110610fb057610faf6140f1565b5b9060005260206000209060070201905060006006600084815260200190815260200160002090508060050160149054906101000a900460ff16611028576040517f08c379a000000000000000000000000000000000000000000000000000000000815260040161101f906148ff565b60405180910390fd5b8060050160159054906101000a900460ff161561107a576040517f08c379a00000000000000000000000000000000000000000000000000000000081526004016110719061496b565b60405180910390fd5b60008160010154118015611095575080600101548160020154115b6110d4576040517f08c379a00000000000000000000000000000000000000000000000000000000081526004016110cb906149d7565b60405180910390fd5b8160040154600160008360050160009054906101000a900473ffffffffffffffffffffffffffffffffffffffff1673ffffffffffffffffffffffffffffffffffffffff1673ffffffffffffffffffffffffffffffffffffffff168152602001908152602001600020600001541015611181576040517f08c379a000000000000000000000000000000000000000000000000000000000815260040161117890614a43565b60405180910390fd5b8160040154600160008360050160009054906101000a900473ffffffffffffffffffffffffffffffffffffffff1673ffffffffffffffffffffffffffffffffffffffff1673ffffffffffffffffffffffffffffffffffffffff16815260200190815260200160002060000160008282546111fb9190614a63565b925050819055508160040154600260008360040160009054906101000a900473ffffffffffffffffffffffffffffffffffffffff1673ffffffffffffffffffffffffffffffffffffffff1673ffffffffffffffffffffffffffffffffffffffff168152602001908152602001600020600001600082825461127c9190614a97565b9250508190555060018160050160156101000a81548160ff0219169083151502179055508060050160009054906101000a900473ffffffffffffffffffffffffffffffffffffffff1673ffffffffffffffffffffffffffffffffffffffff168160040160009054906101000a900473ffffffffffffffffffffffffffffffffffffffff1673ffffffffffffffffffffffffffffffffffffffff167f791ff5c84f9acebb4b26797f063e5992a2fe426c7b60a97e82d103e9c8b210e484600401546040516113499190613f92565b60405180910390a3505061135b6134a5565b50565b61136661345f565b600081116113a9576040517f08c379a00000000000000000000000000000000000000000000000000000000081526004016113a090614b17565b60405180910390fd5b600160003373ffffffffffffffffffffffffffffffffffffffff1673ffffffffffffffffffffffffffffffffffffffff16815260200190815260200160002060010160159054906101000a900460ff16156114e15780600160003373ffffffffffffffffffffffffffffffffffffffff1673ffffffffffffffffffffffffffffffffffffffff168152602001908152602001600020600001541015611483576040517f08c379a000000000000000000000000000000000000000000000000000000000815260040161147a90614b83565b60405180910390fd5b80600160003373ffffffffffffffffffffffffffffffffffffffff1673ffffffffffffffffffffffffffffffffffffffff16815260200190815260200160002060000160008282546114d59190614a63565b92505081905550611655565b600260003373ffffffffffffffffffffffffffffffffffffffff1673ffffffffffffffffffffffffffffffffffffffff16815260200190815260200160002060010160149054906101000a900460ff16156116195780600260003373ffffffffffffffffffffffffffffffffffffffff1673ffffffffffffffffffffffffffffffffffffffff1681526020019081526020016000206000015410156115bb576040517f08c379a00000000000000000000000000000000000000000000000000000000081526004016115b290614bef565b60405180910390fd5b80600260003373ffffffffffffffffffffffffffffffffffffffff1673ffffffffffffffffffffffffffffffffffffffff168152602001908152602001600020600001600082825461160d9190614a63565b92505081905550611654565b6040517f08c379a000000000000000000000000000000000000000000000000000000000815260040161164b90614c5b565b60405180910390fd5b5b60003373ffffffffffffffffffffffffffffffffffffffff168260405161167b90614cac565b60006040518083038185875af1925050503d80600081146116b8576040519150601f19603f3d011682016040523d82523d6000602084013e6116bd565b606091505b5050905080611701576040517f08c379a00000000000000000000000000000000000000000000000000000000081526004016116f890614d0d565b60405180910390fd5b3373ffffffffffffffffffffffffffffffffffffffff167f7084f5476618d8e60b11ef0d7d3f06914655adb8793e28ff7f018d4c76d505d5836040516117479190613f92565b60405180910390a2506117586134a5565b50565b600160003373ffffffffffffffffffffffffffffffffffffffff1673ffffffffffffffffffffffffffffffffffffffff16815260200190815260200160002060010160159054906101000a900460ff16156117eb576040517f08c379a00000000000000000000000000000000000000000000000000000000081526004016117e290614d79565b60405180910390fd5b600160003373ffffffffffffffffffffffffffffffffffffffff1673ffffffffffffffffffffffffffffffffffffffff16815260200190815260200160002060010160149054906101000a900460ff161561187b576040517f08c379a000000000000000000000000000000000000000000000000000000000815260040161187290614d79565b60405180910390fd5b6040518060800160405280600081526020013373ffffffffffffffffffffffffffffffffffffffff16815260200160001515815260200160011515815250600160003373ffffffffffffffffffffffffffffffffffffffff1673ffffffffffffffffffffffffffffffffffffffff1681526020019081526020016000206000820151816000015560208201518160010160006101000a81548173ffffffffffffffffffffffffffffffffffffffff021916908373ffffffffffffffffffffffffffffffffffffffff16021790555060408201518160010160146101000a81548160ff02191690831515021790555060608201518160010160156101000a81548160ff0219169083151502179055509050503373ffffffffffffffffffffffffffffffffffffffff167f6b984f461c8f89a8befd615eb757b5d325a0591faa0cc4a0b16cf2096e46662460016040516119d39190613641565b60405180910390a2565b60606004805480602002602001604051908101604052809291908181526020016000905b82821015611c73578382906000526020600020906007020160405180610140016040529081600082015481526020016001820160009054906101000a900473ffffffffffffffffffffffffffffffffffffffff1673ffffffffffffffffffffffffffffffffffffffff1673ffffffffffffffffffffffffffffffffffffffff168152602001600282018054611a9590614598565b80601f0160208091040260200160405190810160405280929190818152602001828054611ac190614598565b8015611b0e5780601f10611ae357610100808354040283529160200191611b0e565b820191906000526020600020905b815481529060010190602001808311611af157829003601f168201915b5050505050815260200160038201548152602001600482015481526020016005820160009054906101000a900473ffffffffffffffffffffffffffffffffffffffff1673ffffffffffffffffffffffffffffffffffffffff1673ffffffffffffffffffffffffffffffffffffffff1681526020016005820160149054906101000a900460ff161515151581526020016005820160159054906101000a900460ff161515151581526020016005820160169054906101000a900460ff16151515158152602001600682018054611be290614598565b80601f0160208091040260200160405190810160405280929190818152602001828054611c0e90614598565b8015611c5b5780601f10611c3057610100808354040283529160200191611c5b565b820191906000526020600020905b815481529060010190602001808311611c3e57829003601f168201915b50505050508152505081526020019060010190611a01565b50505050905090565b611c846134af565b600260003373ffffffffffffffffffffffffffffffffffffffff1673ffffffffffffffffffffffffffffffffffffffff16815260200190815260200160002060010160149054906101000a900460ff16611d13576040517f08c379a0000000000000000000000000000000000000000000000000000000008152600401611d0a9061431c565b60405180910390fd5b600260003373ffffffffffffffffffffffffffffffffffffffff1673ffffffffffffffffffffffffffffffffffffffff168152602001908152602001600020604051806080016040529081600082015481526020016001820160009054906101000a900473ffffffffffffffffffffffffffffffffffffffff1673ffffffffffffffffffffffffffffffffffffffff1673ffffffffffffffffffffffffffffffffffffffff1681526020016001820160149054906101000a900460ff161515151581526020016001820160159054906101000a900460ff161515151581525050905090565b60048181548110611e0857600080fd5b90600052602060002090600702016000915090508060000154908060010160009054906101000a900473ffffffffffffffffffffffffffffffffffffffff1690806002018054611e5790614598565b80601f0160208091040260200160405190810160405280929190818152602001828054611e8390614598565b8015611ed05780601f10611ea557610100808354040283529160200191611ed0565b820191906000526020600020905b815481529060010190602001808311611eb357829003601f168201915b5050505050908060030154908060040154908060050160009054906101000a900473ffffffffffffffffffffffffffffffffffffffff16908060050160149054906101000a900460ff16908060050160159054906101000a900460ff16908060050160169054906101000a900460ff1690806006018054611f5090614598565b80601f0160208091040260200160405190810160405280929190818152602001828054611f7c90614598565b8015611fc95780601f10611f9e57610100808354040283529160200191611fc9565b820191906000526020600020905b815481529060010190602001808311611fac57829003601f168201915b505050505090508a565b60026020528060005260406000206000915090508060000154908060010160009054906101000a900473ffffffffffffffffffffffffffffffffffffffff16908060010160149054906101000a900460ff16908060010160159054906101000a900460ff16905084565b600260003373ffffffffffffffffffffffffffffffffffffffff1673ffffffffffffffffffffffffffffffffffffffff16815260200190815260200160002060010160149054906101000a900460ff166120cc576040517f08c379a00000000000000000000000000000000000000000000000000000000081526004016120c39061431c565b60405180910390fd5b3373ffffffffffffffffffffffffffffffffffffffff16600260003373ffffffffffffffffffffffffffffffffffffffff1673ffffffffffffffffffffffffffffffffffffffff16815260200190815260200160002060010160009054906101000a900473ffffffffffffffffffffffffffffffffffffffff1673ffffffffffffffffffffffffffffffffffffffff161461219c576040517f08c379a000000000000000000000000000000000000000000000000000000000815260040161219390614388565b60405180910390fd5b6121a461345f565b60048054905082106121eb576040517f08c379a00000000000000000000000000000000000000000000000000000000081526004016121e290614de5565b60405180910390fd5b600060048381548110612201576122006140f1565b5b906000526020600020906007020190503373ffffffffffffffffffffffffffffffffffffffff168160010160009054906101000a900473ffffffffffffffffffffffffffffffffffffffff1673ffffffffffffffffffffffffffffffffffffffff16146122a3576040517f08c379a000000000000000000000000000000000000000000000000000000000815260040161229a90614e51565b60405180910390fd5b600073ffffffffffffffffffffffffffffffffffffffff168160050160009054906101000a900473ffffffffffffffffffffffffffffffffffffffff1673ffffffffffffffffffffffffffffffffffffffff1603612336576040517f08c379a000000000000000000000000000000000000000000000000000000000815260040161232d90614ebd565b60405180910390fd5b600115158160050160159054906101000a900460ff1615151461238e576040517f08c379a000000000000000000000000000000000000000000000000000000000815260040161238590614f29565b60405180910390fd5b8060050160169054906101000a900460ff16156123e0576040517f08c379a00000000000000000000000000000000000000000000000000000000081526004016123d790614f95565b60405180910390fd5b60008160050160009054906101000a900473ffffffffffffffffffffffffffffffffffffffff169050600160008273ffffffffffffffffffffffffffffffffffffffff1673ffffffffffffffffffffffffffffffffffffffff16815260200190815260200160002060010160159054906101000a900460ff16612498576040517f08c379a000000000000000000000000000000000000000000000000000000000815260040161248f90615001565b60405180910390fd5b6040518061012001604052808360000154815260200142815260200162015180856124c39190615021565b426124ce9190614a97565b8152602001836003015481526020013373ffffffffffffffffffffffffffffffffffffffff1681526020018273ffffffffffffffffffffffffffffffffffffffff16815260200160011515815260200160001515815260200183600601805461253690614598565b80601f016020809104026020016040519081016040528092919081815260200182805461256290614598565b80156125af5780601f10612584576101008083540402835291602001916125af565b820191906000526020600020905b81548152906001019060200180831161259257829003601f168201915b505050505081525060066000846000015481526020019081526020016000206000820151816000015560208201518160010155604082015181600201556060820151816003015560808201518160040160006101000a81548173ffffffffffffffffffffffffffffffffffffffff021916908373ffffffffffffffffffffffffffffffffffffffff16021790555060a08201518160050160006101000a81548173ffffffffffffffffffffffffffffffffffffffff021916908373ffffffffffffffffffffffffffffffffffffffff16021790555060c08201518160050160146101000a81548160ff02191690831515021790555060e08201518160050160156101000a81548160ff0219169083151502179055506101008201518160060190816126da9190614775565b5090505060018260050160166101000a81548160ff02191690831515021790555060018060008373ffffffffffffffffffffffffffffffffffffffff1673ffffffffffffffffffffffffffffffffffffffff16815260200190815260200160002060010160146101000a81548160ff0219169083151502179055508073ffffffffffffffffffffffffffffffffffffffff163373ffffffffffffffffffffffffffffffffffffffff167fd67e7c1f35e9c80162b0ac820400da21a5dabb12ceb43b4771e6019266e0f4d084600001546040516127b69190613f92565b60405180910390a350506127c86134a5565b5050565b600160003373ffffffffffffffffffffffffffffffffffffffff1673ffffffffffffffffffffffffffffffffffffffff16815260200190815260200160002060010160159054906101000a900460ff1661285b576040517f08c379a000000000000000000000000000000000000000000000000000000000815260040161285290613ff9565b60405180910390fd5b3373ffffffffffffffffffffffffffffffffffffffff16600160003373ffffffffffffffffffffffffffffffffffffffff1673ffffffffffffffffffffffffffffffffffffffff16815260200190815260200160002060010160009054906101000a900473ffffffffffffffffffffffffffffffffffffffff1673ffffffffffffffffffffffffffffffffffffffff161461292b576040517f08c379a000000000000000000000000000000000000000000000000000000000815260040161292290614065565b60405180910390fd5b61293361345f565b60003411612976576040517f08c379a000000000000000000000000000000000000000000000000000000000815260040161296d906150af565b60405180910390fd5b34600160003373ffffffffffffffffffffffffffffffffffffffff1673ffffffffffffffffffffffffffffffffffffffff16815260200190815260200160002060000160008282546129c89190614a97565b925050819055506129d76134a5565b565b6129e16134f1565b60005b600480549050811015612f1657600060048281548110612a0757612a066140f1565b5b906000526020600020906007020160405180610140016040529081600082015481526020016001820160009054906101000a900473ffffffffffffffffffffffffffffffffffffffff1673ffffffffffffffffffffffffffffffffffffffff1673ffffffffffffffffffffffffffffffffffffffff168152602001600282018054612a9190614598565b80601f0160208091040260200160405190810160405280929190818152602001828054612abd90614598565b8015612b0a5780601f10612adf57610100808354040283529160200191612b0a565b820191906000526020600020905b815481529060010190602001808311612aed57829003601f168201915b5050505050815260200160038201548152602001600482015481526020016005820160009054906101000a900473ffffffffffffffffffffffffffffffffffffffff1673ffffffffffffffffffffffffffffffffffffffff1673ffffffffffffffffffffffffffffffffffffffff1681526020016005820160149054906101000a900460ff161515151581526020016005820160159054906101000a900460ff161515151581526020016005820160169054906101000a900460ff16151515158152602001600682018054612bde90614598565b80601f0160208091040260200160405190810160405280929190818152602001828054612c0a90614598565b8015612c575780601f10612c2c57610100808354040283529160200191612c57565b820191906000526020600020905b815481529060010190602001808311612c3a57829003601f168201915b50505050508152505090503373ffffffffffffffffffffffffffffffffffffffff16600660008360000151815260200190815260200160002060050160009054906101000a900473ffffffffffffffffffffffffffffffffffffffff1673ffffffffffffffffffffffffffffffffffffffff161480612d3b57503373ffffffffffffffffffffffffffffffffffffffff16600660008360000151815260200190815260200160002060040160009054906101000a900473ffffffffffffffffffffffffffffffffffffffff1673ffffffffffffffffffffffffffffffffffffffff16145b15612f0857600660008260000151815260200190815260200160002060405180610120016040529081600082015481526020016001820154815260200160028201548152602001600382015481526020016004820160009054906101000a900473ffffffffffffffffffffffffffffffffffffffff1673ffffffffffffffffffffffffffffffffffffffff1673ffffffffffffffffffffffffffffffffffffffff1681526020016005820160009054906101000a900473ffffffffffffffffffffffffffffffffffffffff1673ffffffffffffffffffffffffffffffffffffffff1673ffffffffffffffffffffffffffffffffffffffff1681526020016005820160149054906101000a900460ff161515151581526020016005820160159054906101000a900460ff16151515158152602001600682018054612e7d90614598565b80601f0160208091040260200160405190810160405280929190818152602001828054612ea990614598565b8015612ef65780601f10612ecb57610100808354040283529160200191612ef6565b820191906000526020600020905b815481529060010190602001808311612ed957829003601f168201915b50505050508152505092505050612f52565b5080806001019150506129e4565b506040517f08c379a0000000000000000000000000000000000000000000000000000000008152600401612f499061511b565b60405180910390fd5b90565b60005b6004805490508110156131aa57600060048281548110612f7b57612f7a6140f1565b5b9060005260206000209060070201905060006006600083600001548152602001908152602001600020905060008160050160009054906101000a900473ffffffffffffffffffffffffffffffffffffffff16905060008260050160146101000a81548160ff02191690831515021790555060008260050160156101000a81548160ff02191690831515021790555060008260050160006101000a81548173ffffffffffffffffffffffffffffffffffffffff021916908373ffffffffffffffffffffffffffffffffffffffff1602179055506000826001018190555060008260020181905550600082600301819055506040518060200160405280600081525082600601908161308b9190614775565b5060008360050160166101000a81548160ff02191690831515021790555060008360050160156101000a81548160ff02191690831515021790555060008360050160006101000a81548173ffffffffffffffffffffffffffffffffffffffff021916908373ffffffffffffffffffffffffffffffffffffffff160217905550600073ffffffffffffffffffffffffffffffffffffffff168173ffffffffffffffffffffffffffffffffffffffff161461319a576000600160008373ffffffffffffffffffffffffffffffffffffffff1673ffffffffffffffffffffffffffffffffffffffff16815260200190815260200160002060010160146101000a81548160ff0219169083151502179055505b5050508080600101915050612f58565b50565b60066020528060005260406000206000915090508060000154908060010154908060020154908060030154908060040160009054906101000a900473ffffffffffffffffffffffffffffffffffffffff16908060050160009054906101000a900473ffffffffffffffffffffffffffffffffffffffff16908060050160149054906101000a900460ff16908060050160159054906101000a900460ff169080600601805461325a90614598565b80601f016020809104026020016040519081016040528092919081815260200182805461328690614598565b80156132d35780601f106132a8576101008083540402835291602001916132d3565b820191906000526020600020905b8154815290600101906020018083116132b657829003601f168201915b5050505050905089565b6132e561356d565b600160003373ffffffffffffffffffffffffffffffffffffffff1673ffffffffffffffffffffffffffffffffffffffff16815260200190815260200160002060010160159054906101000a900460ff16613374576040517f08c379a000000000000000000000000000000000000000000000000000000000815260040161336b90614065565b60405180910390fd5b600160003373ffffffffffffffffffffffffffffffffffffffff1673ffffffffffffffffffffffffffffffffffffffff168152602001908152602001600020604051806080016040529081600082015481526020016001820160009054906101000a900473ffffffffffffffffffffffffffffffffffffffff1673ffffffffffffffffffffffffffffffffffffffff1673ffffffffffffffffffffffffffffffffffffffff1681526020016001820160149054906101000a900460ff161515151581526020016001820160159054906101000a900460ff161515151581525050905090565b60035481565b60026000540361349b576040517f3ee5aeb500000000000000000000000000000000000000000000000000000000815260040160405180910390fd5b6002600081905550565b6001600081905550565b604051806080016040528060008152602001600073ffffffffffffffffffffffffffffffffffffffff1681526020016000151581526020016000151581525090565b60405180610120016040528060008152602001600081526020016000815260200160008152602001600073ffffffffffffffffffffffffffffffffffffffff168152602001600073ffffffffffffffffffffffffffffffffffffffff168152602001600015158152602001600015158152602001606081525090565b604051806080016040528060008152602001600073ffffffffffffffffffffffffffffffffffffffff1681526020016000151581526020016000151581525090565b6000604051905090565b600080fd5b600080fd5b6000819050919050565b6135d6816135c3565b81146135e157600080fd5b50565b6000813590506135f3816135cd565b92915050565b60006020828403121561360f5761360e6135b9565b5b600061361d848285016135e4565b91505092915050565b60008115159050919050565b61363b81613626565b82525050565b60006020820190506136566000830184613632565b92915050565b6000819050919050565b61366f8161365c565b811461367a57600080fd5b50565b60008135905061368c81613666565b92915050565b6000602082840312156136a8576136a76135b9565b5b60006136b68482850161367d565b91505092915050565b600080fd5b600080fd5b6000601f19601f8301169050919050565b7f4e487b7100000000000000000000000000000000000000000000000000000000600052604160045260246000fd5b613712826136c9565b810181811067ffffffffffffffff82111715613731576137306136da565b5b80604052505050565b60006137446135af565b90506137508282613709565b919050565b600067ffffffffffffffff8211156137705761376f6136da565b5b613779826136c9565b9050602081019050919050565b82818337600083830152505050565b60006137a86137a384613755565b61373a565b9050828152602081018484840111156137c4576137c36136c4565b5b6137cf848285613786565b509392505050565b600082601f8301126137ec576137eb6136bf565b5b81356137fc848260208601613795565b91505092915050565b6000806000806080858703121561381f5761381e6135b9565b5b600085013567ffffffffffffffff81111561383d5761383c6135be565b5b613849878288016137d7565b945050602061385a8782880161367d565b935050604061386b8782880161367d565b925050606085013567ffffffffffffffff81111561388c5761388b6135be565b5b613898878288016137d7565b91505092959194509250565b600073ffffffffffffffffffffffffffffffffffffffff82169050919050565b60006138cf826138a4565b9050919050565b6138df816138c4565b81146138ea57600080fd5b50565b6000813590506138fc816138d6565b92915050565b600060208284031215613918576139176135b9565b5b6000613926848285016138ed565b91505092915050565b6139388161365c565b82525050565b613947816138c4565b82525050565b6000608082019050613962600083018761392f565b61396f602083018661393e565b61397c6040830185613632565b6139896060830184613632565b95945050505050565b600081519050919050565b600082825260208201905092915050565b6000819050602082019050919050565b6139c78161365c565b82525050565b6139d6816138c4565b82525050565b600081519050919050565b600082825260208201905092915050565b60005b83811015613a165780820151818401526020810190506139fb565b60008484015250505050565b6000613a2d826139dc565b613a3781856139e7565b9350613a478185602086016139f8565b613a50816136c9565b840191505092915050565b613a6481613626565b82525050565b600061014083016000830151613a8360008601826139be565b506020830151613a9660208601826139cd565b5060408301518482036040860152613aae8282613a22565b9150506060830151613ac360608601826139be565b506080830151613ad660808601826139be565b5060a0830151613ae960a08601826139cd565b5060c0830151613afc60c0860182613a5b565b5060e0830151613b0f60e0860182613a5b565b50610100830151613b24610100860182613a5b565b50610120830151848203610120860152613b3e8282613a22565b9150508091505092915050565b6000613b578383613a6a565b905092915050565b6000602082019050919050565b6000613b7782613992565b613b81818561399d565b935083602082028501613b93856139ae565b8060005b85811015613bcf5784840389528151613bb08582613b4b565b9450613bbb83613b5f565b925060208a01995050600181019050613b97565b50829750879550505050505092915050565b60006020820190508181036000830152613bfb8184613b6c565b905092915050565b608082016000820151613c1960008501826139be565b506020820151613c2c60208501826139cd565b506040820151613c3f6040850182613a5b565b506060820151613c526060850182613a5b565b50505050565b6000608082019050613c6d6000830184613c03565b92915050565b600082825260208201905092915050565b6000613c8f826139dc565b613c998185613c73565b9350613ca98185602086016139f8565b613cb2816136c9565b840191505092915050565b600061014082019050613cd3600083018d61392f565b613ce0602083018c61393e565b8181036040830152613cf2818b613c84565b9050613d01606083018a61392f565b613d0e608083018961392f565b613d1b60a083018861393e565b613d2860c0830187613632565b613d3560e0830186613632565b613d43610100830185613632565b818103610120830152613d568184613c84565b90509b9a5050505050505050505050565b60008060408385031215613d7e57613d7d6135b9565b5b6000613d8c8582860161367d565b9250506020613d9d8582860161367d565b9150509250929050565b600061012083016000830151613dc060008601826139be565b506020830151613dd360208601826139be565b506040830151613de660408601826139be565b506060830151613df960608601826139be565b506080830151613e0c60808601826139cd565b5060a0830151613e1f60a08601826139cd565b5060c0830151613e3260c0860182613a5b565b5060e0830151613e4560e0860182613a5b565b50610100830151848203610100860152613e5f8282613a22565b9150508091505092915050565b60006020820190508181036000830152613e868184613da7565b905092915050565b600061012082019050613ea4600083018c61392f565b613eb1602083018b61392f565b613ebe604083018a61392f565b613ecb606083018961392f565b613ed8608083018861393e565b613ee560a083018761393e565b613ef260c0830186613632565b613eff60e0830185613632565b818103610100830152613f128184613c84565b90509a9950505050505050505050565b608082016000820151613f3860008501826139be565b506020820151613f4b60208501826139cd565b506040820151613f5e6040850182613a5b565b506060820151613f716060850182613a5b565b50505050565b6000608082019050613f8c6000830184613f22565b92915050565b6000602082019050613fa7600083018461392f565b92915050565b7f53747564656e7420556e72656769737465726564000000000000000000000000600082015250565b6000613fe3601483613c73565b9150613fee82613fad565b602082019050919050565b6000602082019050818103600083015261401281613fd6565b9050919050565b7f556e726567697374657265642053747564656e74000000000000000000000000600082015250565b600061404f601483613c73565b915061405a82614019565b602082019050919050565b6000602082019050818103600083015261407e81614042565b9050919050565b7f496e76616c696420686f7374656c204964000000000000000000000000000000600082015250565b60006140bb601183613c73565b91506140c682614085565b602082019050919050565b600060208201905081810360008301526140ea816140ae565b9050919050565b7f4e487b7100000000000000000000000000000000000000000000000000000000600052603260045260246000fd5b7f486f7374656c206f636375706965640000000000000000000000000000000000600082015250565b6000614156600f83613c73565b915061416182614120565b602082019050919050565b6000602082019050818103600083015261418581614149565b9050919050565b7f54616b656e000000000000000000000000000000000000000000000000000000600082015250565b60006141c2600583613c73565b91506141cd8261418c565b602082019050919050565b600060208201905081810360008301526141f1816141b5565b9050919050565b7f496e73756666696369656e742046756e64730000000000000000000000000000600082015250565b600061422e601283613c73565b9150614239826141f8565b602082019050919050565b6000602082019050818103600083015261425d81614221565b9050919050565b7f486f7374656c4f776e6572207265676973746572656400000000000000000000600082015250565b600061429a601683613c73565b91506142a582614264565b602082019050919050565b600060208201905081810360008301526142c98161428d565b9050919050565b7f556e7265676973746572656420486f7374656c4f776e65720000000000000000600082015250565b6000614306601883613c73565b9150614311826142d0565b602082019050919050565b60006020820190508181036000830152614335816142f9565b9050919050565b7f4e6f7420486f7374656c4f776e65720000000000000000000000000000000000600082015250565b6000614372600f83613c73565b915061437d8261433c565b602082019050919050565b600060208201905081810360008301526143a181614365565b9050919050565b60008160601b9050919050565b60006143c0826143a8565b9050919050565b60006143d2826143b5565b9050919050565b6143ea6143e5826138c4565b6143c7565b82525050565b600081905092915050565b6000614406826139dc565b61441081856143f0565b93506144208185602086016139f8565b80840191505092915050565b6000819050919050565b6144476144428261365c565b61442c565b82525050565b600061445982866143d9565b60148201915061446982856143fb565b91506144758284614436565b602082019150819050949350505050565b7f486f7374656c2072656769737465726564000000000000000000000000000000600082015250565b60006144bc601183613c73565b91506144c782614486565b602082019050919050565b600060208201905081810360008301526144eb816144af565b9050919050565b7f4e487b7100000000000000000000000000000000000000000000000000000000600052601160045260246000fd5b600061452c8261365c565b91507fffffffffffffffffffffffffffffffffffffffffffffffffffffffffffffffff820361455e5761455d6144f2565b5b600182019050919050565b7f4e487b7100000000000000000000000000000000000000000000000000000000600052602260045260246000fd5b600060028204905060018216806145b057607f821691505b6020821081036145c3576145c2614569565b5b50919050565b60008190508160005260206000209050919050565b60006020601f8301049050919050565b600082821b905092915050565b60006008830261462b7fffffffffffffffffffffffffffffffffffffffffffffffffffffffffffffffff826145ee565b61463586836145ee565b95508019841693508086168417925050509392505050565b6000819050919050565b600061467261466d6146688461365c565b61464d565b61365c565b9050919050565b6000819050919050565b61468c83614657565b6146a061469882614679565b8484546145fb565b825550505050565b600090565b6146b56146a8565b6146c0818484614683565b505050565b5b818110156146e4576146d96000826146ad565b6001810190506146c6565b5050565b601f821115614729576146fa816145c9565b614703846145de565b81016020851015614712578190505b61472661471e856145de565b8301826146c5565b50505b505050565b600082821c905092915050565b600061474c6000198460080261472e565b1980831691505092915050565b6000614765838361473b565b9150826002028217905092915050565b61477e826139dc565b67ffffffffffffffff811115614797576147966136da565b5b6147a18254614598565b6147ac8282856146e8565b600060209050601f8311600181146147df57600084156147cd578287015190505b6147d78582614759565b86555061483f565b601f1984166147ed866145c9565b60005b82811015614815578489015182556001820191506020850194506020810190506147f0565b86831015614832578489015161482e601f89168261473b565b8355505b6001600288020188555050505b505050505050565b7f496e76616c696420686f7374656c496400000000000000000000000000000000600082015250565b600061487d601083613c73565b915061488882614847565b602082019050919050565b600060208201905081810360008301526148ac81614870565b9050919050565b7f52656365697074206e6f74207369676e65640000000000000000000000000000600082015250565b60006148e9601283613c73565b91506148f4826148b3565b602082019050919050565b60006020820190508181036000830152614918816148dc565b9050919050565b7f416c726561647920706169640000000000000000000000000000000000000000600082015250565b6000614955600c83613c73565b91506149608261491f565b602082019050919050565b6000602082019050818103600083015261498481614948565b9050919050565b7f496e76616c696420706572696f64000000000000000000000000000000000000600082015250565b60006149c1600e83613c73565b91506149cc8261498b565b602082019050919050565b600060208201905081810360008301526149f0816149b4565b9050919050565b7f496e73756666696369656e742062616c616e6365000000000000000000000000600082015250565b6000614a2d601483613c73565b9150614a38826149f7565b602082019050919050565b60006020820190508181036000830152614a5c81614a20565b9050919050565b6000614a6e8261365c565b9150614a798361365c565b9250828203905081811115614a9157614a906144f2565b5b92915050565b6000614aa28261365c565b9150614aad8361365c565b9250828201905080821115614ac557614ac46144f2565b5b92915050565b7f496e76616c696420616d6f756e74000000000000000000000000000000000000600082015250565b6000614b01600e83613c73565b9150614b0c82614acb565b602082019050919050565b60006020820190508181036000830152614b3081614af4565b9050919050565b7f696e73756666696369656e742066756e64732000000000000000000000000000600082015250565b6000614b6d601383613c73565b9150614b7882614b37565b602082019050919050565b60006020820190508181036000830152614b9c81614b60565b9050919050565b7f696e73756666696369656e742066756e64730000000000000000000000000000600082015250565b6000614bd9601283613c73565b9150614be482614ba3565b602082019050919050565b60006020820190508181036000830152614c0881614bcc565b9050919050565b7f4e6f742072656769737465726564000000000000000000000000000000000000600082015250565b6000614c45600e83613c73565b9150614c5082614c0f565b602082019050919050565b60006020820190508181036000830152614c7481614c38565b9050919050565b600081905092915050565b50565b6000614c96600083614c7b565b9150614ca182614c86565b600082019050919050565b6000614cb782614c89565b9150819050919050565b7f5769746864726177206661696c65640000000000000000000000000000000000600082015250565b6000614cf7600f83613c73565b9150614d0282614cc1565b602082019050919050565b60006020820190508181036000830152614d2681614cea565b9050919050565b7f53747564656e7420726567697374657265640000000000000000000000000000600082015250565b6000614d63601283613c73565b9150614d6e82614d2d565b602082019050919050565b60006020820190508181036000830152614d9281614d56565b9050919050565b7f496e76616c69642050726f706572747920494400000000000000000000000000600082015250565b6000614dcf601383613c73565b9150614dda82614d99565b602082019050919050565b60006020820190508181036000830152614dfe81614dc2565b9050919050565b7f4e6f74206f776e6572206f66207468697320686f7374656c0000000000000000600082015250565b6000614e3b601883613c73565b9150614e4682614e05565b602082019050919050565b60006020820190508181036000830152614e6a81614e2e565b9050919050565b7f4e6f2073747564656e7420726571756573746564206974000000000000000000600082015250565b6000614ea7601783613c73565b9150614eb282614e71565b602082019050919050565b60006020820190508181036000830152614ed681614e9a565b9050919050565b7f4e6f206163746976652072657175657374000000000000000000000000000000600082015250565b6000614f13601183613c73565b9150614f1e82614edd565b602082019050919050565b60006020820190508181036000830152614f4281614f06565b9050919050565b7f416c7265616479206f6363757069656400000000000000000000000000000000600082015250565b6000614f7f601083613c73565b9150614f8a82614f49565b602082019050919050565b60006020820190508181036000830152614fae81614f72565b9050919050565b7f53747564656e74206e6f74207265676973746572656400000000000000000000600082015250565b6000614feb601683613c73565b9150614ff682614fb5565b602082019050919050565b6000602082019050818103600083015261501a81614fde565b9050919050565b600061502c8261365c565b91506150378361365c565b92508282026150458161365c565b9150828204841483151761505c5761505b6144f2565b5b5092915050565b7f496e76616c696420496e70757400000000000000000000000000000000000000600082015250565b6000615099600d83613c73565b91506150a482615063565b602082019050919050565b600060208201905081810360008301526150c88161508c565b9050919050565b7f4e6f206163746976652072656e74616c20666f756e6400000000000000000000600082015250565b6000615105601683613c73565b9150615110826150cf565b602082019050919050565b60006020820190508181036000830152615134816150f8565b905091905056fea26469706673582212200cec066777532ed2aa480a820d53af320867d55aaca5e1965d8017346d29f41b64736f6c634300081c0033",
  "linkReferences": {},
  "deployedLinkReferences": {}
}